:020000040000fa
:080000000002040000000000f2
:020000040000fa
:0400080020030000d1
:020000040000fa
:04000c00e40200000a
:020000040000fa
:04001000ea02000000
:020000040000fa
:04001400f0020000f6
:020000040000fa
:04001800f6020000ec
:020000040000fa
:04001c00fc020000e2
:020000040000fa
:0400200020030000b9
:020000040000fa
:0400240020030000b5
:020000040000fa
:0400280020030000b1
:020000040000fa
:04002c0020030000ad
:020000040000fa
:0400300020030000a9
:020000040000fa
:0400340020030000a5
:020000040000fa
:0400380020030000a1
:020000040000fa
:04003c00200300009d
:020000040000fa
:040040002003000099
:020000040000fa
:040044002003000095
:020000040000fa
:040048002003000091
:020000040000fa
:04004c00200300008d
:020000040000fa
:040050002003000089
:020000040000fa
:04005400d4140000c0
:020000040000fa
:04005800441500004b
:020000040000fa
:04005c00200300007d
:020000040000fa
:040060002003000079
:020000040000fa
:040064002003000075
:020000040000fa
:040068002003000071
:020000040000fa
:04006c00200300006d
:020000040000fa
:040070002003000069
:020000040000fa
:040074002003000065
:020000040000fa
:040078002003000061
:020000040000fa
:04007c00200300005d
:020000040000fa
:040080002003000059
:020000040000fa
:040084002003000055
:020000040000fa
:040088002003000051
:020000040000fa
:04008c00200300004d
:020000040000fa
:040090002003000049
:020000040000fa
:040094002003000045
:020000040000fa
:040098002003000041
:020000040000fa
:04009c00200300003d
:020000040000fa
:0400a0002003000039
:020000040000fa
:0400a4002003000035
:020000040000fa
:0400a8002003000031
:020000040000fa
:0400ac00200300002d
:020000040000fa
:0400b0002003000029
:020000040000fa
:0400b4002003000025
:020000040000fa
:0400b8002003000021
:020000040000fa
:0400bc00200300001d
:020000040000fa
:0400c0002003000019
:020000040000fa
:0400c4002003000015
:020000040000fa
:0400c8002003000011
:020000040000fa
:0400cc00200300000d
:020000040000fa
:0400d0002003000009
:020000040000fa
:0400d4002003000005
:020000040000fa
:0400d8002003000001
:020000040000fa
:0400dc0020030000fd
:020000040000fa
:0400e00020030000f9
:020000040000fa
:0400e40020030000f5
:020000040000fa
:0400e80020030000f1
:020000040000fa
:0400ec0020030000ed
:020000040000fa
:0400f00020030000e9
:020000040000fa
:0400f40020030000e5
:020000040000fa
:0400f80020030000e1
:020000040000fa
:0400fc0020030000dd
:020000040000fa
:0401000020030000d8
:020000040000fa
:0401040020030000d4
:020000040000fa
:0401080020030000d0
:020000040000fa
:04010c0020030000cc
:020000040000fa
:0401100020030000c8
:020000040000fa
:0401140020030000c4
:020000040000fa
:0401180020030000c0
:020000040000fa
:04011c0020030000bc
:020000040000fa
:0401200020030000b8
:020000040000fa
:0401240020030000b4
:020000040000fa
:0401280020030000b0
:020000040000fa
:04012c0020030000ac
:020000040000fa
:0401300020030000a8
:020000040000fa
:0401340020030000a4
:020000040000fa
:0401380020030000a0
:020000040000fa
:04013c00200300009c
:020000040000fa
:040140002003000098
:020000040000fa
:040144002003000094
:020000040000fa
:040148002003000090
:020000040000fa
:04014c00200300008c
:020000040000fa
:040150002003000088
:020000040000fa
:040154002003000084
:020000040000fa
:040158002003000080
:020000040000fa
:04015c00200300007c
:020000040000fa
:040160002003000078
:020000040000fa
:040164002003000074
:020000040000fa
:0402080020030000cf
:020000040000fa
:04020c0002030000e9
:020000040000fa
:0402100008030000df
:020000040000fa
:040214000e030000d5
:020000040000fa
:0402180014030000cb
:020000040000fa
:04021c001a030000c1
:020000040000fa
:0402200020030000b7
:020000040000fa
:0402240020030000b3
:020000040000fa
:0402280020030000af
:020000040000fa
:04022c0020030000ab
:020000040000fa
:0402300020030000a7
:020000040000fa
:0402340020030000a3
:020000040000fa
:04023800200300009f
:020000040000fa
:04023c00200300009b
:020000040000fa
:040240002003000097
:020000040000fa
:040244002003000093
:020000040000fa
:04024800200300008f
:020000040000fa
:04024c00200300008b
:020000040000fa
:040250002003000087
:020000040000fa
:040254002003000083
:020000040000fa
:04025800200300007f
:020000040000fa
:04025c00200300007b
:020000040000fa
:040260002003000077
:020000040000fa
:040264002003000073
:020000040000fa
:04026800200300006f
:020000040000fa
:04026c00200300006b
:020000040000fa
:040270002003000067
:020000040000fa
:040274002003000063
:020000040000fa
:04027800200300005f
:020000040000fa
:04027c00200300005b
:020000040000fa
:040280002003000057
:020000040000fa
:040284002003000053
:020000040000fa
:04028800200300004f
:020000040000fa
:04028c00200300004b
:020000040000fa
:040290002003000047
:020000040000fa
:040294002003000043
:020000040000fa
:04029800200300003f
:020000040000fa
:04029c00200300003b
:020000040000fa
:0402a0002003000037
:020000040000fa
:0402a4002003000033
:020000040000fa
:0402a800200300002f
:020000040000fa
:0402ac00200300002b
:020000040000fa
:0402b0002003000027
:020000040000fa
:0402b4002003000023
:020000040000fa
:0402b800200300001f
:020000040000fa
:0402bc00200300001b
:020000040000fa
:0402c0002003000017
:020000040000fa
:0402c4002003000013
:020000040000fa
:0402c800200300000f
:020000040000fa
:0402cc00200300000b
:020000040000fa
:0402d0002003000007
:020000040000fa
:0402d4002003000003
:020000040000fa
:0402d80020030000ff
:020000040000fa
:0402dc0020030000fb
:020000040000fa
:0402e00020030000f7
:020000040000fa
:0402e40020030000f3
:020000040000fa
:0402e80020030000ef
:020000040000fa
:0402ec0020030000eb
:020000040000fa
:0402f00020030000e7
:020000040000fa
:0402f40020030000e3
:020000040000fa
:0402f80020030000df
:020000040000fa
:0402fc0020030000db
:020000040000fa
:0403000020030000d6
:020000040000fa
:0403040020030000d2
:020000040000fa
:0403080020030000ce
:020000040000fa
:04030c0020030000ca
:020000040000fa
:0403100020030000c6
:020000040000fa
:0403140020030000c2
:020000040000fa
:0403180020030000be
:020000040000fa
:04031c0020030000ba
:020000040000fa
:0403200020030000b6
:020000040000fa
:0403240020030000b2
:020000040000fa
:0403280020030000ae
:020000040000fa
:04032c0020030000aa
:020000040000fa
:0403300020030000a6
:020000040000fa
:0403340020030000a2
:020000040000fa
:04033800200300009e
:020000040000fa
:04033c00200300009a
:020000040000fa
:040340002003000096
:020000040000fa
:040344002003000092
:020000040000fa
:04034800200300008e
:020000040000fa
:04034c00200300008a
:020000040000fa
:040350002003000086
:020000040000fa
:040354002003000082
:020000040000fa
:04035800200300007e
:020000040000fa
:04035c00200300007a
:020000040000fa
:040360002003000076
:020000040000fa
:040364002003000072
:020000040000fa
:100400008f8720000e7f24000e018800000000006e
:10041000000020000000e000020032000001200087
:10042000200288000c00070040c3210001002000ca
:1004300011000700000020000000e0000200320070
:1004400000000200000000001e1202000000000078
:100450000040da000000fe004440a9000000200037
:100460000000e0000300320000002000a00188002e
:100470004440a80000000600910188008000780038
:100480000000eb0015003700e280400032a0b4000d
:100490009101ba00e280400032a0b4009102ba009b
:1004a000e280400032a0b4000002eb00472bde00e7
:1004b000f507b200602ce10004003a000059eb009f
:1004c0008301e900fdff3e00040037006128e100e0
:1004d000010032000082eb000b00070011c3ba00dc
:1004e0001101ba000604e00003003a000200e00037
:1004f000e5ff3a0000000600f607b200960188000a
:1005000082007800f5ff37003159ba008301e90015
:100510000c0032002159ba008301e90008003200c2
:100520000400e00003003a00e280400032a0b40082
:10053000f5ff370011d9ba008301e900faff3a004c
:100540008100e800e180400032a0b4000000060015
:100550007e0b040000000000060c040000000000f8
:100560008e0c040000000000640d04000000000078
:100570005a0e040000000000da0e04000000000023
:10058000ca0f040000000000c011040000000000b9
:100590001e19040000000000701904000000000093
:1005a000c219040000000000121a0400000000003c
:1005b000561a040000000000821a04000000000027
:1005c000d21a0400000000000000fa008020a900f8
:1005d000ffff37000000fa008060a900ffff37002e
:1005e0000000fa008040a900ffff37000000fa0079
:1005f0008080a900ffff37000000fa0080a0a9005a
:10060000ffff37000000fa008020a900ffff37003d
:100610000000fa008060a900ffff37000000fa0028
:100620008040a900ffff37000000fa008080a90089
:10063000ffff37000000fa0080a0a900ffff37008d
:100640000000fa00ffff3700889fbe00800478009a
:10065000b04380000000e00004003a000e000700f4
:100660000084eb000000e00008003500b843800083
:100670000900e00005003200090044000600070000
:100680000000e00001003d000084eb00080078005d
:100690004f04be0000000600800078000100e0006a
:1006a00003003a0000002000b0438800000005006d
:1006b0000080eb0002002000828f500002003e000c
:1006c000b14388000000eb000000060003f0a20028
:1006d000889fbe008a9fbe008c1f7800c300070061
:1006e000ca0033006450e1004f0032006420e10092
:1006f0005200320003826c0007003b000905d00065
:100700000306d000820f54000c065d000200390081
:1007100002003200890178000306780085825500c6
:1007200004003d000003fd008103fd008502ea0096
:100730008b854200840f720002003b0060001000b5
:10074000e08018006011b8000005eb007a28e10095
:100750000a00390006007800c75ddd00f707b20027
:10076000878075002d003700828171000a017800b2
:10077000610560008180d1000080d3008502e9001e
:10078000f9ff3b00060440008784480002003b005c
:1007900060041400e0841c000988a30007003200f4
:1007a0008a81710082817100610164008904d10035
:1007b0000884d3008b05e800170037000978a300f0
:1007c00013003a000b00e000130034008b05e90031
:1007d0000804440089844c000a4474000978a3008a
:1007e0000d003a000b00e000070034008b05e90023
:1007f0000804440089844c0001003a000b002000ea
:100800000978a300f7ff32000001eb000200370077
:10081000828171000a0178004e0007000cf0a700e9
:1008200001f0a000820037006420e10002003a00dd
:10083000838f6c00820033000801be000200be00fe
:100840007b0037000081eb00b4003700889fbe00ba
:100850008a9fbe008c1f7800640007006b00330085
:1008600003866c006450e1002e0032006420e10039
:10087000330032006150e1002f0032006120e100be
:100880003100320085855500eb07b00009002000db
:1008900008042000050037000804440089844c0047
:1008a0000a0031000603430087834b000001530018
:1008b00081815b00f8ff33000203be000800a00046
:1008c0000804440089844c00f6ff3900c639dd0075
:1008d0008301730001003200130020008904d1005d
:1008e0000884d3000998a300050032000800a7007f
:1008f0000300a0008904d1000884d3008b05e80020
:100900008904d1000884d3000001eb000281d200e9
:100910001000070001f0a1000cf0a70001f0a000fa
:10092000430037006420e100450032000801be00aa
:100930000200be00f7ff37006120e10040003200f6
:100940006000b800f3ff37000000200001f8270026
:10095000f0ff370081002000618055000b003d0052
:100960000b00200061fe2f000100e1001d0034009b
:1009700082817100610164008904d1000884d30080
:100980000000e800faff3a007100200061006400f6
:10099000030070000200600009003200610444009e
:1009a000e0844c000988a500050032008b05e800b2
:1009b0006808e10002003a008904d1000884d300ed
:1009c000f20f20000258e10005003d00c75ddd0088
:1009d000f907b20089807500080078000000060061
:1009e0000bf827008b007800000005000004be0013
:1009f000610107000003be000405be000200be0046
:100a00005d010700844f7500000006000200be0073
:100a10006450e100050036006420e1000200360069
:100a20000968a30001003a000800be000160a000b0
:100a30004f0678004f05be004f04be0000000600c0
:100a4000f0ff2f00f1ff2700f9ff3700889fbe005d
:100a50008a9fbe008c1f7800e4ff0700ebff330085
:100a600003866c006450e100240032006420e10041
:100a7000270032006150e100220032006120e100d5
:100a8000210032008b854200eb07b1000134b80031
:100a9000003ab8000804420089844a00013ab800cc
:100aa0000030b8008880400009014a00040033008b
:100ab0000000400081804800020149008b05e900e8
:100ac000c909dd008301700001003200130020001d
:100ad000c814de004814dd004709de001200b20031
:100ae000c808de00088470009aff070001f0a1002a
:100af0000cf0a70001f0a000cdff37006120e1005d
:100b0000cfff32000801be000200be00f7ff370031
:100b10006150e100fcff3a00c9ff3700889fbe002a
:100b20008a9fbe008c9fbe00820578000004be0034
:100b3000110107000800be006420e1000700390031
:100b400002003a00f1ff2700f0ff2f000160a00033
:100b50001202200072408800550037006120e10039
:100b600003003a000b00a70001f8230050003700f3
:100b700001f0a10002002100936424008700070017
:100b80000800be0004003500b2fd2000930c2400d4
:100b9000a80007000004be000005eb000b00a60043
:100ba0004f0dde0001f0a1000004be0032982f00be
:100bb00023ea2300a5ff07000001eb0003f0230058
:100bc0000b00a70003f82300c1fe07007500070013
:100bd0000000a7000a00a200930007000b00e0003d
:100be000030032000200200003f02300b7fe0700dc
:100bf00001f0a2000006be000200200093042400c1
:100c000092ff07000801be00b1fe0700809fbe00f2
:100c10000c00be0022a22a00d3a723008bff0700ee
:100c20004f01be00aafe07000004be0001f0a100b3
:100c30000200200003982300580007000800be00af
:100c4000190035000001be0080ff07000006be004d
:100c5000b2c52900e36223007cff070022222b009b
:100c6000f3942b009afe07000c01be0077ff0700eb
:100c7000e273280083c0230095fe07000c01be002c
:100c800072ff070042aa2a00a3e22b0090fe070091
:100c90000c01be006dff07000801be006bff0700de
:100ca0000801be008afe07000a00a70001f0a200aa
:100cb0004f06be004f05be004f04be0000000600f8
:100cc0000001eb0095ff3700889fbe008a9fbe00a1
:100cd0008c1f78000004be00a70007000478a30062
:100ce00026003a006120e1002500320009f8a30047
:100cf00025003a006420e10021003200f507b10030
:100d00000508a30002003200000040008180480076
:100d10006044b800031020000200200000004000e2
:100d2000818048000805440089854c000a0541007f
:100d30008b8549000a0550008b855800030033005d
:100d40000a00be0002047400838474008301d10091
:100d50000281d300830f7100f0ff3a008904d100b3
:100d60000884d3006001490082017800c1adde0033
:100d7000fb07b000f7fe07002dff37000960a00059
:100d80000800be002aff37001202200072408800cf
:100d9000f0ff2f00f1ff270025ff3700140020008f
:100da0008a0037000001be00730007000470a7002e
:100db00003f0a1006509b100160032000d003500f6
:100dc0006828e10006003500f0ff2f00f1ff270042
:100dd0000300e00013003b000100280000000500b4
:100de00000004000818048008502e900fcff3a00d5
:100df00008003700f88f420002003c008000eb0042
:100e0000000005008100d1000080d3008502e800c9
:100e1000fcff3a000300e00002003b00600010000d
:100e2000e0801800000006004f89de008201780093
:100e3000810037000400200000003700889fbe00ba
:100e40008a9fbe008c1f78004f26dd00e7fe07005a
:100e5000eefe33006120e100430032006250e10009
:100e600041003e003e0039006420e1003c003200b9
:100e7000058255000f003b000402e80038003a00ec
:100e8000800f5300818f5b00350034000800be00e6
:100e900003f0a10001f0a60003f0a0000cf0a700f1
:100ea0000bfe0700e2fe37000603430087834b007a
:100eb0000c4646000005530081855b0002003300ac
:100ec0000a03be000c00a0000402e900f6ff3b008c
:100ed000850578000602430087824b0004003a0033
:100ee0006000b80009f0a70001f0a000d0fe3700b4
:100ef0000002520081825a000704e000040033001f
:100f00000603430087834b008b05e900faff370097
:100f1000090578000604be000203be006011b80097
:100f20008cfe0700e00f5200e08f5a0007003500ea
:100f300002003c000c08a300040032000601be00c1
:100f400003f0a0000cf0a700e1fd07000a8568008f
:100f500001f0a1000af0a70001f0a000b4fe3700e4
:100f60000800be00b2fe3700100220000cf0a60000
:100f700070408800b2fe3700c70ade00f107b200f9
:100f8000f50fb20008003200e1cf4200020032004b
:100f90000170a00024000500810f700001003200e4
:100fa0000408050044000500810f700002003a00ab
:100fb000140005008502e9000000400081c04800df
:100fc000fcff3b000170a00024000500889fbe00cc
:100fd0008a9fbe00841f780084fe07004f007800bf
:100fe00011003300f0ff2f00838f6c0006003b00e0
:100ff000040565000a00a7000800370009f0a600f4
:101000001000200008003700820f5400838f5c001e
:10101000030039001000200001003e000000200005
:1010200009f0a7000000ea004f05be004f04be0013
:101030000000e00000000600881f7800030478002c
:101040000300e00007003d0060001000e080180091
:1010500060011900e081190002003b0001f02d0041
:10106000030037000400070008f0a70001f0a0000b
:101070004f04780000000600889fbe008a9fbe00d3
:1010800000827000040271000482710026003200a8
:101090000004be000200be006011b8006b09200011
:1010a000950220000182cf000a0039000541b100fd
:1010b0000082cf00070039000541b1000982cf004e
:1010c000040039000541b1000882cf000100390059
:1010d0000541b10005425200120032000a003b00f7
:1010e00082817100610164008100d1000080d30021
:1010f0008984d3000884d3008b05e8000442e8000b
:10110000f7ff3a00070037000804440089844c00c8
:1011100000004800818048008b05e9000442e90096
:10112000f9ff3a000bfe07004f05be004f04be005a
:1011300000000600889fbe008a9fbe008c9fbe00f4
:1011400061862000324380000200e0000b003a007c
:10115000648140003243880082438800a1009800e7
:1011600071438800214190000204a000a240980031
:10117000614190000204a000e24098006704400032
:101180004244de004244dd00744380000100200040
:1011900009002000818454002d0020001100090066
:1011a0008d04d800800678000886e8000c0646000a
:1011b0008001eb0002003700130020000b027800d2
:1011c000a44090000108a300020032000a0037008a
:1011d000120a780014017800a24090000108a300d0
:1011e000fbff320088004200810f510002003900ed
:1011f0000800e00042003d00940578000b00a100cb
:10120000848f5500edff3e00e18f5100eaff3a0068
:101210008d0f540002003600890f5400140039006d
:101220006141b8006148b900b4ff2f0005002000fb
:101230000000520081805a00800f5100818f5900b8
:1012400002003500640544000a0037000000200059
:101250003a0020000005550008054500110009006e
:101260000985d8000980b900000578000100370021
:101270000c0578000a007800f3fc0700e10f40003d
:1012800005003a00640544000a007800eefc0700ff
:10129000e10f40002b00320081438000800878007d
:1012a00081438000e481400021419000830f500081
:1012b000020032000204a000010037000204a10075
:1012c000a2409800640555000a0540000a0878000d
:1012d0008a43880061862000010d780082438000e7
:1012e000a24090000104a00021419800a04090007d
:1012f0000104a100214098008001eb00afff3700fe
:1013000071438800810f5100070036001101be00b3
:1013100092438800a3438800940878000041eb00c2
:1013200071438000a240980073438000030a780054
:10133000a44090000104a0002142980064004200f3
:10134000010037000000eb004f06be004f05be0055
:101350004f04be00000006000000e000080032005c
:101360006400500071438000810f50000100310083
:1013700070438800a04090000104a1002140980023
:1013800000000600889fbe008a9fbe000004be00c9
:101390000900e00007003a000000eb000800e00050
:1013a0003600320008007800ebff07000000eb0079
:1013b000320037000800e00003003a00090078001e
:1013c0005cff07002d003700640054009005780092
:1013d00068f897000008a3000200320008007800b7
:1013e000ddff07000900780052ff07008004780045
:1013f0000000eb000900e00020003200888f54005c
:101400001b00320069bd97000905550042d5de007a
:1014100088855500c2ddde000a0178008b0f55007b
:10142000010036000b0178004211dd0088007800d1
:101430000900780014000700888f54000e00310066
:101440004255dd000a854400880f55000a00360029
:101450000804550042c4de004244dd000884440014
:1014600090438000a1438000008cbe000200370042
:101470000800780001003700090078004f05be0021
:101480004f04be0000000600800178000200370013
:10149000b15978000201e9000200e000fcff3a00c7
:0414a0000000060042
:020000040000fa
:1014a4001400fa00881f780020079800310798007c
:1014b400420798005307980064079800750798003e
:1014c400060f9800170f98002e0090000000e0000f
:1014d40011003a00384080008003200014ff070008
:1014e4008000780008014400608220000000410070
:1014f40001087800304080008000400060822000b5
:10150400008040009000780021079800304080005f
:101514000000e800304088003e0090000000e00039
:101524002d003a002e0090004e019000de01900044
:101534000288be002e0090006e019000fe01900013
:1015440022009800330098002e0090000e099000ad
:101554009e09900042009800530098002e009000cd
:101564003eb99700ceb997006200980073009800c6
:101574002e0090001eb99700aeb99700020898009b
:10158400130898002e0090007eb197008eb9970042
:1015940022089800330898002e0090005eb197004e
:1015a400eeb1970042089800530898002e0090006e
:1015b4003eb19700ceb19700620898007308980076
:1015c4002e0090001eb19700aeb197000210980053
:1015d40013109800220037000000eb00000f780081
:1015e4001c0037000000eb001007980015003700be
:1015f4001e0078006c00b90000007800be00900066
:10160400808040001e0090004200dd000080400009
:101614001000be002e0290001e0178006311b90074
:10162400820178001e019000028141004211dd0018
:10163400020142000089be001e0090000000e80084
:10164400100798001e009000e20f5000e8ff3400dd
:101654001e0fe8001e007800e20f5000e1ff340086
:101664002e009000e1b72000411098002e00900059
:1016740061c02000511098002e009000e1c82000a5
:10168400611098002e00900041d62000711098003f
:101694002e009000a1e52000011898002e00900073
:1016a400a1ed2000111898002e009000a1fc20004c
:1016b400211898002e009000011c21003118980078
:1016c4002e0090004f0478000080fa00000006000d
:1016d4000400fa00000f7800214798002e40900083
:1016e4000004e000020032001e00780019ff070029
:1016f4000080fa00000006000a00fa003007980093
:10170400410798006000b800809fbe006000b800e8
:10171400809fbe006000b800809fbe006000b800db
:10172400809fbe006000b800809fbe006000b800cb
:10173400809fbe006033b8006022b8006011b8001a
:101744008000eb000000eb0055ff0700f88757000e
:10175400200798000000eb00000f780024003700f9
:101764000000eb00100798001d003700be00900039
:101774001e0078004400dd00008040001002be001e
:101784004e0190001e0078006300b90080007800cc
:101794001e009000008040004200dd000000410077
:1017a4001000be000001be000400be00c7fb07001d
:1017b4002e0290001e0178006311b90082017800a6
:1017c4001e019000028141004211dd00020142002d
:1017d4000089be001e0090000000e8001007980079
:1017e4001e009000e20f5000e0ff34001e0fe800de
:1017f4001e007800e20f5000d9ff34002e00900044
:101804000080fa00000006000a00fa003007980081
:10181400410798006000b800809fbe006000b800d7
:10182400809fbe006000b800809fbe006000b800ca
:10183400809fbe006000b800809fbe006000b800ba
:10184400809fbe006033b8006022b8006011b80009
:101854008000eb000000eb0011ff0700f887570041
:10186400200798000000eb00000f780024003700e8
:101874000000eb00100798001d003700be00900028
:101884001e0078004400dd00008040001002be000d
:101894004e0190001e0078006300b90080007800bb
:1018a4001e009000008040004200dd000000410066
:1018b4001000be000001be000400be0082fb070051
:1018c4002e0290001e0178006311b9008201780095
:1018d4001e019000028141004211dd00020142001c
:1018e4000089be001e0090000000e8001007980068
:1018f4001e009000e20f5000e0ff34001e0fe800cd
:101904001e007800e20f5000d9ff34002e00900032
:101914000080fa00000006000a00fa00889fbe005a
:1019240030079800410798006000b800809fbe000f
:101934006000b800809fbe006000b800809fbe00b9
:101944006000b800809fbe006000b800809fbe00a9
:101954006000b800809fbe006033b8006022b80009
:101964006011b8008000eb000000eb00ccfe070023
:10197400f8875700200798000000eb00000f78005c
:10198400490037000000eb001007980042003700c0
:101994003e0190001e0078006c00b9000000780041
:1019a400000041001002be00ce0090001e00900016
:1019b4004200dd00008040001000be000001be00b7
:1019c4000400be0020fc07000004be003e0190009d
:1019d4001e0078006c00b90000007800640040002c
:1019e400000041001002be00ce0090001e009000d6
:1019f400630040004200dd00008040001000be0093
:101a04000001be000400be000ffc07000001be0080
:101a14000800be002dfb07000004be003e0190003c
:101a24001e0078006c00b9000000780068004000d7
:101a3400000041001002be00ce0090001e00900085
:101a4400660040004200dd00008040001000be003f
:101a54000001be000400be00fbfb07000001be0045
:101a64000800be0019fb07002e0290001e0178003a
:101a74006311b900820178001e01900002814100c7
:101a84004211dd00020142000089be001e009000e8
:101a94000000e800100798001e009000e20f5000bc
:101aa400bbff34001e0fe8001e007800e20f500058
:101ab400b4ff34002e0090004f04be000080fa00f2
:101ac400000006000600fa00889fbe001007980078
:101ad400210798006033b8006022b8006011b80094
:101ae4000000eb0087050700000f78001e0090003f
:101af4001002be002e0090001000be000001be00c7
:101b04000400be00d0fb07000004be001e009000cd
:101b140020029000b00290002e009000b0009000cf
:101b2400200090000001be000400be00c6fb0700b8
:101b34000001be000800be00e4fa07000004be0075
:101b44001e00900040029000d00290002e009000f1
:101b5400d0009000400090000001be000400be00d0
:101b6400b9fb07000001be000800be00d7fa070059
:101b74001e0178000089be001e00900060029000e3
:101b8400f00290002e0090001000be000001be0084
:101b94000400be00acfb07000004be001e00900061
:101ba400000a9000900a90002e009000b00090006f
:101bb400200090000001be000400be00a2fb07004c
:101bc4000001be000800be00c0fa07000004be0009
:101bd4001e009000200a9000b00a90002e00900091
:101be400d0009000400090000001be000400be0040
:101bf40095fb07000001be000800be00b3fa070011
:101c04001e01780020019800310198001e00900008
:101c1400400a9000d00a90002e0090001000be00f0
:101c24000001be000400be0087fb07000004be00e4
:101c34001e009000600a9000f00a90002e009000b0
:101c4400b0009000200090000001be000400be001f
:101c54007dfb07000001be000800be009bfa0700e0
:101c64000004be001e00900000129000901290002c
:101c74002e009000d0009000400090000001be00b3
:101c84000400be0070fb07000001be000800be0097
:101c94008efa07001e017800400198005101980057
:101ca4001e0078004f04be000080fa000000060009
:101cb4000c00fa0030079800420798005307980078
:101cc4006000b800809fbe006000b800809fbe0026
:101cd4006000b800809fbe006000b800809fbe0016
:101ce4006000b800809fbe006000b800809fbe0006
:101cf4006033b8006022b8006011b8008000eb00c7
:101d04000000eb00e6fd0700f88757002007980065
:101d14000000eb00000f78001f0037000000eb000c
:101d240010079800180037003e0190001e0078004c
:101d34006300b900800078001e009000008040001d
:101d44004200dd00000041001000be004e01900082
:101d5400de0190003cfb07002e0290001e0178007b
:101d64006311b900820178001e01900002814100d4
:101d74004211dd00020142000089be001e009000f5
:101d84000000e800100798001e009000e20f5000c9
:101d9400e5ff34001e0fe8001e007800e20f50003b
:101da400deff34002e0090000080fa0000000600e0
:101db4000200fa00889fbe00000f78001e00780021
:101dc4001002be001e0078009008900000089000e9
:101dd4000001be000400be001bfb07000002be00a1
:101de4001e00780090109000001090000001be00ca
:101df4000400be0014fb07000004be001e007800af
:101e040060029000f00290001e007800f00890003c
:101e1400600890000001be000400be000afb070039
:101e24000002be001e007800d00090004000900028
:101e34000001be000400be0003fb07000001be0059
:101e44000800be0021fa07000004be001e0078004e
:101e5400400a9000d00a90001e007800b000900064
:101e6400200090000001be000400be00f6fa070046
:101e74000002be001e007800b00890002008900008
:101e84000001be000400be00effa07000001be001e
:101e94000800be000dfa07000004be001e00780012
:101ea400400a9000d00a90001e007800900890002c
:101eb400000890000001be000400be00e2fa070022
:101ec4000002be001e007800d00090004000900088
:101ed4000001be000400be00dbfa07000001be00e2
:101ee4000800be00f8f907000004be001e007800d8
:101ef40060029000f00290001e007800b000900094
:101f0400200090000001be000400be00cefa0700cd
:101f14000002be001e007800901090000010900097
:101f24000001be000400be00c7fa07000001be00a5
:101f34000800be00e4f907000004be001e0078009b
:101f44001002be001e007800f008900060089000a7
:101f54000001be000400be00bbfa07000002be0080
:101f64001e007800b0089000200890000001be0018
:101f74000400be00b4fa07000001be000800be0061
:101f8400d1f907004f04be000080fa0000000600eb
:101f94000400fa00889fbe00100798006000b80093
:101fa400809fbe006000b800809fbe006000b80043
:101fb400809fbe006000b800809fbe006000b80033
:101fc400809fbe006000b800809fbe006033b800f0
:101fd4006022b8006011b8008000eb000000eb0044
:101fe4002ffd0700f8875700000f78001e009000af
:101ff400000a9000900a90001e009000901090003b
:10200400001090000001be000400be008efa07001c
:102014000004be001e009000200a9000b00a900048
:102024001e009000f0089000600890000001be00bf
:102034000400be0084fa07000001be000800be00d0
:10204400a1f907001e0178000089be001e0090005f
:1020540020029000b00290001e00900090109000aa
:10206400001090000001be000400be0076fa0700d4
:102074000004be001e009000600a9000f00a900068
:102084001e009000d0009000400090000001be00af
:102094000400be006cfa07000001be000800be0088
:1020a40089f9070001f0a2001e01780020019800c0
:1020b400310198001e00900020029000b0029000b0
:1020c4001e009000b0089000200890000001be009f
:1020d4000400be005cfa07000004be001e0090006d
:1020e400000a9000900a90001e009000d00090001a
:1020f400400090000001be000400be0052fa070038
:102104000001be000800be006ff907001e01780040
:1021140040019800510198001e0090006002900058
:10212400f00290001e0090009010900000109000ab
:102134000001be000400be0043fa07000004be0014
:102144001e009000400a9000d00a90001e009000eb
:10215400b0089000200890000001be000400be00fa
:1021640039fa07000001be000800be0056f9070056
:1021740001f0a2001e01780060019800710198002e
:102184001e0090001002be001e00900090109000ef
:10219400001090000001be000400be002afa0700ef
:1021a4000004be001e009000400a9000d00a900077
:1021b4001e009000d0009000400090000001be007e
:1021c4000400be0020fa07000001be000800be00a3
:1021d4003df907001e0178000009980011099800d4
:1021e4001e0090001002be001e009000b008900077
:1021f400200890000001be000400be0012fa07008f
:102204000004be001e00900060029000f0029000e6
:102214001e009000d0009000400090000001be001d
:102224000400be0008fa07000001be000800be005a
:1022340025f9070001f0a2001e017800200998008a
:10224400310998001e00900060029000f002900096
:102254001e009000f0089000600890000001be008d
:102264000400be00f8f907000004be001e00900040
:10227400400a9000d00a90001e0090009008900040
:10228400000890000001be000400be00eef9070043
:102294000001be000800be000bf907001e01780013
:1022a40040099800510998001e0090001002be00d9
:1022b4001e009000f0089000600890000001be002d
:1022c4000400be00e0f907000004be001e009000f8
:1022d400400a9000d00a90001e009000b0009000c8
:1022e400200090000001be000400be00d6f90700e3
:1022f4000001be000800be00f3f8070001f0a200d0
:102304001e01780060099800710998001e00900071
:102314001002be001e00900090089000000890007b
:102324000001be000400be00c7f907000004be009f
:102334001e00900060029000f00290001e009000c9
:10234400b0009000200090000001be000400be0018
:10235400bdf907000001be000800be00daf807005e
:102364001e01780000119800111198001e007800d9
:102374004f04be000080fa00000006000800fa00c6
:10238400889fbe008a1f7800300798006000b8005c
:10239400809fbe006000b800809fbe006000b8004f
:1023a400809fbe006000b800809fbe006000b8003f
:1023b400809fbe006000b800809fbe006033b800fc
:1023c4006022b8006011b8008000eb000000eb0050
:1023d40033fc0700f8875700000f78003e00900098
:1023e40073fe070010079800210798003e00900034
:1023f400e7fe0700001d90001e019000ae01900052
:102404000000200001f823000ff907000004be00bb
:102414003e009000defe07000801be000a00010035
:10242400000f78001e0078004f0578004f04be00ae
:102434000080fa00000006000000fa00889fbe0039
:102444008a9fbe0000002000010c2400809fbe0073
:102454006000b800809fbe006000b800809fbe008e
:102464006000b800809fbe0000002000010c240022
:10247400809fbe006000b800809fbe006033b8003b
:102484006022b80002002000030c24008000eb004e
:102494000000eb0002fc0700f8875700504088005a
:1024a4000000200001122400809fbe006000b800dc
:1024b400809fbe006000b800809fbe006000b8002e
:1024c400809fbe000000200001122400809fbe00f7
:1024d4006000b800809fbe006033b8006022b8007e
:1024e40002002000031224008000eb000000eb0037
:1024f400ebfb0700f88757006040880000002000cd
:10250400c12024005041880061418800d0cc2c00b7
:10251400c1fa23007041880081418800f0282c0012
:1025240051d7230090418800a1418800b07228004f
:1025340061e12300b0418800c1418800c09f2a00a6
:1025440011e72300d0418800e1418800b4418000b4
:10255400c5418000d0418000e14180000001be00ff
:102564000400be0059f80700020020000300240004
:10257400b5f80700f041880001428800e0ed210031
:10258400418023001042880021428800704d2300be
:10259400f1ce23003042880041428800d0e3280075
:1025a400e1ce2300504288006142880000002000f0
:1025b400a1332400704288008142880010952400d1
:1025c400d191230090428800a1428800608f2200ac
:1025d400c1f12300b0428800c142880070428000eb
:1025e400814280000001be0017f907000002be000e
:1025f40010428000214280000001be000400be00a1
:1026040011f907000004be0090418000a141800040
:102614000001be000cf907000001be000800be0066
:1026240089f80700d0428800e142880070428000a7
:10263400814280000001be0003f907000004be00cf
:102644009a428000ab4280003442800045428000c0
:1026540050428000614280000001be000400be00c0
:10266400f9f807000002be00b0428000c1428000b9
:102674000001be000400be0073f807000001be00a4
:102684000a00be0011f807000001be000800be00e9
:10269400edf807000004be0090418000a1418000d5
:1026a4000001be00e8f807000001be000800be00fb
:1026b40065f80700f04288000143880074428000f6
:1026c4008542800030428000414280000001be000b
:1026d4000400be00dcf807000002be009041800048
:1026e400a14180000001be000400be0056f80700ae
:1026f4000002be00b0428000c14280000001be0062
:102704000400be0050f807001043880021438800ed
:1027140029040700bf03070010118000680060004f
:102724000000e000010032000900370010118000b1
:10273400620060000000e000020032002222a900d2
:10274400030037001011800002000700f2ff370079
:10275400f1ff37000400fa0003c8bf000004e000e2
:1027640003003200c402a800c482a800c502a80065
:1027740002c8bf000004e00003003200c402a90044
:10278400c482a900c502a900204080000000e00026
:1027940021003a00a04080000041880001418000ef
:1027a400f00f20000080600000418800014180009b
:1027b400b04080004800dd00010070000041880046
:1027c400c04080001041880011418000f00f2000bb
:1027d400008060001041880011418000d0408000da
:1027e4004800dd000100700010418800e0408000d6
:1027f4002041880021418000f00f2000008060000b
:102804002041880021418000f04080004800dd0024
:1028140001007000204188000000eb00000f7800e8
:102824000000eb00000f7800230037000000eb00ed
:10283400100798001e0078008000400000822000ed
:1028440000804000900078000000280000806000b4
:10285400100798001e0090000000e00011003200f4
:102864001e007800800040000082200000804000ac
:1028740090007800f0ff2700808060001e00780040
:10288400000140000082200000004100010878009f
:10289400008120001e0040008040eb0001487800c9
:1028a40004003700008120001e00400011c0b30066
:1028b400014878001e0fe8001e007800e20f500067
:1028c400daff340000812000104078000080fb0013
:1028d400610060000000400022168000d1ff2f003c
:1028e4008100610001007000201688001081200022
:1028f400104078000080fb00610060004700dd00ac
:1029040022168000f1f72f008100610001007000a1
:102914002016880020812000104078000080fb00f1
:10292400610060004900dd0022168000f1df2f0005
:1029340081006100010070002016880000418000c1
:102944006500b900800078003000200000017800a4
:10295400110009008200d800b00e880010418000e8
:102964006500b90080007800300020000001780084
:10297400110009008200d800c00e880020418000a8
:102984006500b90080007800300020000001780064
:10299400110009008200d800d00e88000080fa00df
:1029a40000000600809fbe00821f78003400f800fb
:1029b40000002000a00188000000fa00301180000f
:1029c4000040780000e8b7000180200091407800c2
:1029d40070c6b30080cf500003003a0010c0b300ab
:1029e40002e8b70021003700018020009140780000
:1029f40030c7b30080cf500004003a0010c0b300c9
:102a040003e8b7000268ef001800370001802000d7
:102a14009140780050c7b30080cf500004003a00c2
:102a240050072000201188000428ef000f00370011
:102a34002040800001802000914078008100fb004c
:102a4400000140004081200000004100010878009e
:102a5400204080000000e8002040880020408000e2
:102a6400e50f5000010034000428ef008560a90040
:102a74000080fa003400f9004f0178004f00be00d6
:102a8400004006003400f800881f78000800200089
:102a9400a80188004f0478000000fa008580a9008e
:102aa4000080fa003400f900004006002400fa0017
:102ab400889fbe008a9fbe008c9fbe00300f980086
:102ac400410f9800520f9800630f9800740f9800fc
:102ad4006e089000d00090004000900058f7070066
:102ae4000006be006e089000d000900040009000e8
:102af40072f807000005be006e089000d000900038
:102b0400400090006df807000004be0009f0a20028
:102b14006e089000d00090004000900048f7070035
:102b24000200200003f82300829fbe006011b80059
:102b3400829fbe006011b800829fbe006011b80081
:102b4400829fbe008c9fbe008a9fbe006033b80087
:102b54000802be000001be008000eb000000eb0094
:102b64004ffa0700f8875700000f78006e089000ae
:102b7400d00090004000900050f807000002be0012
:102b840005f0a2007e089000d00090004000900064
:102b94000001be000400be00abf707000006be0043
:102ba4006e089000d00090004000900024f70700c9
:102bb4000002be007e089000d0009000400090000b
:102bc4000001be000400be009ff707000005be0020
:102bd4006e089000d00090004000900018f70700a5
:102be4000002be0005f0a2007e089000d000900014
:102bf400400090000001be000400be0092f70700f0
:102c04000004be006e089000d000900040009000c8
:102c14002af807000002be0005f0a2007e0890001a
:102c2400d0009000400090000001be000400be00ef
:102c340085f707006011b800829fbe006011b800dc
:102c4400829fbe006011b800829fbe006011b80070
:102c5400829fbe008c9fbe008a9fbe006033b80076
:102c64000802be000001be008000eb000000eb0083
:102c74000bfa0700f887570010079800d04280002d
:102c8400e142800002002000030424006ef70700e4
:102c94000004be00f0418000014280000001be003b
:102ca40069f707000001be000800be0066f70700d0
:102cb4000002be0070418000814180000001be001e
:102cc4000400be0081f607000005be00d04280006b
:102cd400e14280000200200003fc23005af70700b1
:102ce4000002be0050418000614180000001be002e
:102cf4000400be0075f607000004be00d042800048
:102d0400e14280000200200003fc23004ef707008c
:102d14000002be0050418000614180000001be00fd
:102d24000400be0069f607008a9fbe006011b80067
:102d3400829fbe006011b800829fbe006011b8007f
:102d4400829fbe00889fbe006011b800829fbe00b3
:102d54006033b8006022b8000001be008000eb00c0
:102d64000000eb00cef90700f88757002007980011
:102d7400f04280000143800002002000030424008c
:102d840031f707000004be00f041800001428000da
:102d94000001be002cf707000001be000800be00c1
:102da40029f707000001be000217980013179800c6
:102db400f0428000014380000200200003fc230055
:102dc40021f707000006be005441800065418000e1
:102dd4007e089000d0009000400090000001be00ea
:102de4000400be0018f707000005be005041800033
:102df400614180000002be0005f0a2007e08900040
:102e0400d0009000400090000001be000400be000d
:102e14000df707000004be00f0428000014380006b
:102e24000200200003fc230007f707000e119000a6
:102e34009e119000829fbe006011b800829fbe0068
:102e44006011b800829fbe006011b800829fbe006e
:102e54008c9fbe008a9fbe006033b8000802be008b
:102e64000001be008000eb000000eb008cf90700bd
:102e7400f8875700300798006e089000d000900043
:102e8400400090006ef607000006be006e08900039
:102e9400d00090004000900088f707000005be00b5
:102ea4000bf0a2006e089000d0009000400090004b
:102eb40082f707000004be006e089000d000900066
:102ec400400090005ef607000200200003f8230093
:102ed400829fbe006011b800829fbe006011b800de
:102ee400829fbe006011b800829fbe008c9fbe000e
:102ef4008a9fbe006033b8000802be000001be0015
:102f04008000eb000000eb0065f90700f88757002c
:102f140040079800ce0090002e0090007efa070033
:102f240050079800ce0090001e0090007afa070027
:102f3400800078004e00900077fa07008000780047
:102f44002e00900074fa070000047800ce00900070
:102f54003e00900070fa0700880078002afa070003
:102f640060079800f441800005428000f24180002f
:102f740003428000f041800001428000849fbe0033
:102f8400829fbe00809fbe006000b800809fbe008c
:102f9400d0222b00d1f52b00809fbe00d0222b0025
:102fa400d1f52300809fbe000600200007f823000f
:102fb4000400200005f02b000200200003f02b0089
:102fc4008000eb000000eb0035f90700f88757009c
:102fd4007007980010438000214380000001be0068
:102fe4007e00900032fb0700000f9800be0890009e
:102ff4006e089000b90007008000780050408000ff
:10300400b0fa070000047800ce0890007e08900013
:10301400b20007008000780060408000a9fa070031
:103024008800780084000700800078005e08900023
:10303400aa000700800078005e009000a1fa070053
:10304400000478000e089000ccfc0700880078008b
:103054009cfa0700100f98000e089000c7fc0700a8
:10306400ee0090002cfa0700fe08900095fa070085
:10307400800078001e0890006f000700200f980061
:1030840011c0b3001e00780091f9070011c0b3000d
:103094001e0090008ef9070011c0b3002e009000ae
:1030a4008bf9070011c0b3003e00900088f90700b7
:1030b40011c0b3004e00900085f9070011c0b300a1
:1030c4005e00900082f9070011c0b3006e0090000a
:1030d4007ff9070011c0b3007e0090007cf907005f
:1030e40011c0b3000e08900079f907002e08900073
:1030f4004f06be004f05be004f04be000080fa001c
:10310400000006000e00fa00881f7800000f780007
:103114001207980023079800340798004507980081
:1031240056079800670798001e0078000000e0002a
:1031340010003a0048408000e0012000fcf707003e
:1031440080007800080144008082200000004100d3
:103154000108780040408000800040008082200008
:1031640000804000100f7800404080000000e8001c
:10317400404088001e0078001e019000ae019000bf
:103184000288be001e0078003e019000ce0190002f
:1031940022009800330098001e0078005e01900021
:1031a400ee01900042009800530098001e00780041
:1031b400e1912100010898001e0078000197210088
:1031c400110898001e007800219c21002108980015
:1031d4001e00780021a12100310898001e0078000b
:1031e40061a52100410898001e00780021a8210053
:1031f400510898001e00780021ad21006108980054
:103204001e0078004f0478000080fa0000000600d9
:103214000400fa00000f7800214798002e40900027
:103224000004e000020032001e00780049f80700a4
:103234000080fa00000006000400fa00889fbe0027
:103244008a9fbe00000f7800110798001e007800c6
:1032540040029000d00290001e009000d000900028
:10326400400090000001be000400be0017f50700f6
:103274000005be001e00780020029000b0029000fd
:103284001e009000b0009000200090000001be00dd
:103294000400be000df507000004be001e00780007
:1032a4001002be001e0090001000be000001be000f
:1032b4000400be0005f507000a03be000802be00b4
:1032c4000001be000000eb008eff07004f05be00aa
:1032d4004f04be000080fa00000006000400fa005b
:1032e400889fbe008a9fbe00000f780011079800d7
:1032f4001e00780040029000d00290001e00900052
:10330400d0009000400090000001be000400be0008
:10331400edf407000005be001e00780020029000b6
:10332400b00290001e009000b000900020009000b9
:103334000001be000400be00e3f407000004be0068
:103344001e0078001002be001e0090001000be0097
:103354000001be000400be00dbf407000a03be0047
:103364000802be000001be000000eb0065ff07007c
:103374004f05be004f04be000080fa0000000600a6
:103384000400fa00889fbe00000f7800110798001f
:103394001e0078001002be001e0090001000be0047
:1033a4000001be000400be00a7f507000004be0033
:1033b4001e00780020029000b00290001e009000d1
:1033c400b0009000200090000001be000400be0088
:1033d4009df507000001be000800be00bbf4070015
:1033e4000004be001e00780040029000d00290004d
:1033f4001e009000d0009000400090000001be002c
:103404000400be0090f507000001be000800be00e5
:10341400aef407004f04be000080fa00000006006e
:103424000600fa00889fbe008a9fbe00000f780045
:1034340012079800230798001e007800d00090001f
:10344400400090001e019000ae0190007ef5070040
:103454000005be001e007800b0009000200090001f
:103464001e019000ae01900077f507000004be0035
:103474001e0078001000be001e019000ae019000f6
:1034840071f507000a03be000802be000001be0079
:103494000000eb001bff07004f05be004f04be00f9
:1034a4000080fa00000006000400fa00000f780013
:1034b400110798001e0090001000be001e01780045
:1034c4000089be001e009000b00090002000900013
:1034d4001e01780020019800310198001e00900020
:1034e400d0009000400090001e0178004001980038
:1034f400510198001e0078000080fa0000000600c8
:103504000200fa00889fbe00000f78001e007800b9
:103514001002be001e0078001000be000001be00b4
:103524000400be0048f507000004be001e00780039
:1035340020029000b00290001e007800b0009000bd
:10354400200090000001be000400be003ef507000c
:103554000001be000800be005cf407000004be00c9
:103564001e00780040029000d00290001e007800f7
:10357400d0009000400090000001be000400be0096
:1035840031f507000001be000800be004ff407003b
:10359400ccf507004f04be000080fa0000000600ce
:1035a4000600fa00200798002e009000d4ff0700c0
:1035b400008fbe002e0090001000be001e01be0051
:1035c400a1f407002e0190000089be002e00900097
:1035d400b0009000200090001e01be009af4070085
:1035e4002e01900020019800310198002e009000d7
:1035f400d0009000400090001e01be0092f407002d
:103604002e01900040019800510198000080fa00ba
:10361400000006000000fa00113a8000f0fb2f00c1
:1036240000816000600420007105200023742000e4
:1036340080497800814978008249780021358000ea
:1036440000fe2f00008060000020a00020358800cc
:103654000136800000fe2f00008060003000b300bf
:1036640000368800113a8000000420000101700037
:103674006004200071052000237420008049780034
:103684008149780082497800c002a900c022a900bb
:10369400c082a900c0e2a900c102a900c122a900f8
:1036a40003000700160007000080fa00000006006f
:1036b4000000fa0000002800000e8800c221ef007c
:1036c400f07c2000200e8800f0ff2000400e8800cf
:1036d40000042000500e880000f02f00a00e880087
:1036e40040062000b00e8800800c2000c00e880028
:1036f400803e2000d00e88000080fa000000060002
:103704000200fa002002a900001180000010a100ac
:103714000020a1000011880020a2a9002062a900b5
:1037240020c2a900a00220004011880023a2a90001
:1037340023e2a900101180000060a1000070a10024
:10374400101188009580a8009560a80021e2a800c7
:103754002342a8000000eb00000f780002003700ad
:10376400000000001e0fe800f00321009e00780016
:10377400808f5000faff34000080fa000000060039
:103784000400fa00100798000000eb00000f780016
:103794000000eb00000f7800010037001e0fe80066
:1037a4001e0090009e007800808f5000fbff3500c3
:1037b4000080fa00000006000000fa0090022000d9
:1037c400303a8800203a80000060a1000070a10017
:1037d400203a8800213a800000fe2f00008060001b
:1037e400203a880050012000403a880040a7a900f0
:1037f4003200200080072000a1092000337420003b
:1038040080497800814978008249780012002000bc
:103814006004200071052000237420008049780092
:10382400814978008249780000000000113a800044
:10383400000027008080600000002300808f50007b
:10384400faff3a0000000000113a80000002200054
:10385400008060000000e000fbff32000080fa00fe
:04386400000006005a
:020000040000fa
:1038680010080000560000000000000000080000da
:103878000e000000000000000e080000020000001a
:1038880000000000660800001000000000000000b2
:10389800760800000200000000000000541c8000b0
:020000040000fa
:0438a800000000001c
:020000040000fa
:0200000401f009
:04000000ffff0000fe
:020000040000fa
:0200000401f009
:04000400ffff0000fa
:020000040000fa
:0200000401f009
:04000800ffff0000f6
:020000040000fa
:0200000401f009
:04000c00820000006e
:020000040000fa
:0200000401f009
:040010006500000087
:020000040000fa
:0200000401f009
:040014005f00000089
:020000040000fa
:0200000401f009
:04001800770000006d
:020000040000fa
:0200000401f009
:04001c00ddff000004
:00000001FF
