:020000040000fa
:080000000002040000000000f2
:020000040000fa
:0400080040030000b1
:020000040000fa
:04000c0004030000e9
:020000040000fa
:040010000a030000df
:020000040000fa
:0400140010030000d5
:020000040000fa
:0400180016030000cb
:020000040000fa
:04001c001c030000c1
:020000040000fa
:040020004003000099
:020000040000fa
:040024004003000095
:020000040000fa
:040028004003000091
:020000040000fa
:04002c00400300008d
:020000040000fa
:040030004003000089
:020000040000fa
:040034004003000085
:020000040000fa
:040038004003000081
:020000040000fa
:04003c00400300007d
:020000040000fa
:040040004003000079
:020000040000fa
:040044004003000075
:020000040000fa
:040048004003000071
:020000040000fa
:04004c00400300006d
:020000040000fa
:040050004003000069
:020000040000fa
:04005400ae140000e6
:020000040000fa
:040058001e15000071
:020000040000fa
:04005c00400300005d
:020000040000fa
:040060004003000059
:020000040000fa
:040064004003000055
:020000040000fa
:040068004003000051
:020000040000fa
:04006c00400300004d
:020000040000fa
:040070004003000049
:020000040000fa
:040074004003000045
:020000040000fa
:040078004003000041
:020000040000fa
:04007c00400300003d
:020000040000fa
:040080004003000039
:020000040000fa
:040084004003000035
:020000040000fa
:040088004003000031
:020000040000fa
:04008c00400300002d
:020000040000fa
:040090004003000029
:020000040000fa
:040094004003000025
:020000040000fa
:040098004003000021
:020000040000fa
:04009c00400300001d
:020000040000fa
:0400a0004003000019
:020000040000fa
:0400a4004003000015
:020000040000fa
:0400a8004003000011
:020000040000fa
:0400ac00400300000d
:020000040000fa
:0400b0004003000009
:020000040000fa
:0400b4004003000005
:020000040000fa
:0400b8004003000001
:020000040000fa
:0400bc0040030000fd
:020000040000fa
:0400c00040030000f9
:020000040000fa
:0400c40040030000f5
:020000040000fa
:0400c80040030000f1
:020000040000fa
:0400cc0040030000ed
:020000040000fa
:0400d00040030000e9
:020000040000fa
:0400d40040030000e5
:020000040000fa
:0400d80040030000e1
:020000040000fa
:0400dc0040030000dd
:020000040000fa
:0400e00040030000d9
:020000040000fa
:0400e40040030000d5
:020000040000fa
:0400e80040030000d1
:020000040000fa
:0400ec0040030000cd
:020000040000fa
:0400f00040030000c9
:020000040000fa
:0400f40040030000c5
:020000040000fa
:0400f80040030000c1
:020000040000fa
:0400fc0040030000bd
:020000040000fa
:0401000040030000b8
:020000040000fa
:0401040040030000b4
:020000040000fa
:0401080040030000b0
:020000040000fa
:04010c0040030000ac
:020000040000fa
:0401100040030000a8
:020000040000fa
:0401140040030000a4
:020000040000fa
:0401180040030000a0
:020000040000fa
:04011c00400300009c
:020000040000fa
:040120004003000098
:020000040000fa
:040124004003000094
:020000040000fa
:040128004003000090
:020000040000fa
:04012c00400300008c
:020000040000fa
:040130004003000088
:020000040000fa
:040134004003000084
:020000040000fa
:040138004003000080
:020000040000fa
:04013c00400300007c
:020000040000fa
:040140004003000078
:020000040000fa
:040144004003000074
:020000040000fa
:040148004003000070
:020000040000fa
:04014c00400300006c
:020000040000fa
:040150004003000068
:020000040000fa
:040154004003000064
:020000040000fa
:040158004003000060
:020000040000fa
:04015c00400300005c
:020000040000fa
:040160004003000058
:020000040000fa
:040164004003000054
:020000040000fa
:0402080040030000af
:020000040000fa
:04020c0022030000c9
:020000040000fa
:0402100028030000bf
:020000040000fa
:040214002e030000b5
:020000040000fa
:0402180034030000ab
:020000040000fa
:04021c003a030000a1
:020000040000fa
:040220004003000097
:020000040000fa
:040224004003000093
:020000040000fa
:04022800400300008f
:020000040000fa
:04022c00400300008b
:020000040000fa
:040230004003000087
:020000040000fa
:040234004003000083
:020000040000fa
:04023800400300007f
:020000040000fa
:04023c00400300007b
:020000040000fa
:040240004003000077
:020000040000fa
:040244004003000073
:020000040000fa
:04024800400300006f
:020000040000fa
:04024c00400300006b
:020000040000fa
:040250004003000067
:020000040000fa
:040254004003000063
:020000040000fa
:04025800400300005f
:020000040000fa
:04025c00400300005b
:020000040000fa
:040260004003000057
:020000040000fa
:040264004003000053
:020000040000fa
:04026800400300004f
:020000040000fa
:04026c00400300004b
:020000040000fa
:040270004003000047
:020000040000fa
:040274004003000043
:020000040000fa
:04027800400300003f
:020000040000fa
:04027c00400300003b
:020000040000fa
:040280004003000037
:020000040000fa
:040284004003000033
:020000040000fa
:04028800400300002f
:020000040000fa
:04028c00400300002b
:020000040000fa
:040290004003000027
:020000040000fa
:040294004003000023
:020000040000fa
:04029800400300001f
:020000040000fa
:04029c00400300001b
:020000040000fa
:0402a0004003000017
:020000040000fa
:0402a4004003000013
:020000040000fa
:0402a800400300000f
:020000040000fa
:0402ac00400300000b
:020000040000fa
:0402b0004003000007
:020000040000fa
:0402b4004003000003
:020000040000fa
:0402b80040030000ff
:020000040000fa
:0402bc0040030000fb
:020000040000fa
:0402c00040030000f7
:020000040000fa
:0402c40040030000f3
:020000040000fa
:0402c80040030000ef
:020000040000fa
:0402cc0040030000eb
:020000040000fa
:0402d00040030000e7
:020000040000fa
:0402d40040030000e3
:020000040000fa
:0402d80040030000df
:020000040000fa
:0402dc0040030000db
:020000040000fa
:0402e00040030000d7
:020000040000fa
:0402e40040030000d3
:020000040000fa
:0402e80040030000cf
:020000040000fa
:0402ec0040030000cb
:020000040000fa
:0402f00040030000c7
:020000040000fa
:0402f40040030000c3
:020000040000fa
:0402f80040030000bf
:020000040000fa
:0402fc0040030000bb
:020000040000fa
:0403000040030000b6
:020000040000fa
:0403040040030000b2
:020000040000fa
:0403080040030000ae
:020000040000fa
:04030c0040030000aa
:020000040000fa
:0403100040030000a6
:020000040000fa
:0403140040030000a2
:020000040000fa
:04031800400300009e
:020000040000fa
:04031c00400300009a
:020000040000fa
:040320004003000096
:020000040000fa
:040324004003000092
:020000040000fa
:04032800400300008e
:020000040000fa
:04032c00400300008a
:020000040000fa
:040330004003000086
:020000040000fa
:040334004003000082
:020000040000fa
:04033800400300007e
:020000040000fa
:04033c00400300007a
:020000040000fa
:040340004003000076
:020000040000fa
:040344004003000072
:020000040000fa
:04034800400300006e
:020000040000fa
:04034c00400300006a
:020000040000fa
:040350004003000066
:020000040000fa
:040354004003000062
:020000040000fa
:04035800400300005e
:020000040000fa
:04035c00400300005a
:020000040000fa
:040360004003000056
:020000040000fa
:040364004003000052
:020000040000fa
:10040000ef8620000e7f24000e018800000000000f
:10041000000020000000e000020032000001200087
:100420002002880014000700b80007000000e00068
:1004300003003a0080bd21000100200002003700c7
:100440000000200001002000810f70000100320038
:1004500014000700000020000000e000020032004d
:100460000000020000000000ba11020000000000bd
:100470000040da000000fe004440a9000000200017
:100480000000e0000300320000002000a00188000e
:100490004440a800000006008a1f78008b1f7800e7
:1004a0000000060091018800800478000000eb0045
:1004b0001a003700e284440032a0b4009905ba0063
:1004c000e284440032a0b4009906ba00e2844400f9
:1004d00032a0b4000006eb00476fde00fd07b2005b
:1004e000636ce10003003a00ebff07000000eb0043
:1004f0000a003700606ce10004003a00005deb0088
:100500008b05e900fdff3e00040037006168e10053
:10051000010032000086eb000b00070019c7ba008b
:100520001905ba000e04e00003003a000a00e000da
:10053000e0ff3a0000000600fe07b2009e018800be
:100540008a047800f5ff3700395dba008b05e900b1
:100550000c003200295dba008b05e900080032006a
:100560000c00e00003003a00e284440032a0b40032
:10057000f5ff370019ddba008b05e900faff3a00f4
:100580008904e800e184440032a0b40000000600c1
:100590001a0b040000000000a20b04000000000081
:1005a0002a0c040000000000000d04000000000000
:1005b000f60d040000000000760e040000000000ac
:1005c000660f0400000000005c1104000000000041
:1005d000c21804000000000014190400000000000c
:1005e0006619040000000000b619040000000000b5
:1005f000fa19040000000000261a040000000000a0
:10060000761a0400000000000000fa008020a90013
:10061000ffff37000000fa008060a900ffff3700ed
:100620000000fa008040a900ffff37000000fa0038
:100630008080a900ffff37000000fa0080a0a90019
:10064000ffff37000000fa008020a900ffff3700fd
:100650000000fa008060a900ffff37000000fa00e8
:100660008040a900ffff37000000fa008080a90049
:10067000ffff37000000fa0080a0a900ffff37004d
:100680000000fa00ffff3700889fbe00800478005a
:10069000604380000000e00004003a000e00070004
:1006a0000084eb000000e000080035006843800093
:1006b0000900e000050032000900440006000700c0
:1006c0000000e00001003d000084eb00080078001d
:1006d0004f04be0000000600800078000100e0002a
:1006e00003003a000000200060438800000005007d
:1006f0000080eb0002002000828f500002003e00cc
:10070000614388000000eb000000060000000500c7
:1007100003f0a200889fbe008a9fbe008c1f780055
:10072000c3000700ca0033006450e1004f003200ec
:100730006420e1005200320003826c0007003b009d
:100740000905d0000306d000820f54000c065d009e
:1007500002003900020032008901780003067800a7
:100760008582550004003d000003fd008103fd006b
:100770008502ea008b854200840f720002003b0074
:1007800060001000e08018006011b8000005eb0068
:100790007a28e1000a00390006007800c75ddd0014
:1007a000f707b200878075002d0037008281710045
:1007b0000a017800610560008180d1000080d300cb
:1007c0008502e900f9ff3b000604400087844800e9
:1007d00002003b0060041400e0841c000988a300b0
:1007e000070032008a81710082817100610164001a
:1007f0008904d1000884d3008b05e8001700370076
:100800000978a30013003a000b00e0001300340045
:100810008b05e9000804440089844c000a447400f4
:100820000978a3000d003a000b00e0000700340037
:100830008b05e9000804440089844c0001003a005b
:100840000b0020000978a300f7ff32000001eb0045
:1008500002003700828171000a0178004e00070013
:100860000cf0a70001f0a000820037006420e10036
:1008700002003a00838f6c00820033000801be0042
:100880000200be007b0037000081eb00b40037009f
:10089000889fbe008a9fbe008c1f780064000700fe
:1008a0006b00330003866c006450e1002e003200c0
:1008b0006420e100330032006150e1002f0032007b
:1008c0006120e1003100320085855500eb07b00062
:1008d0000900200008042000050037000804440037
:1008e00089844c000a0031000603430087834b00d3
:1008f0000001530081815b00f8ff33000203be005a
:100900000800a0000804440089844c00f6ff390068
:10091000c639dd008301730001003200130020009e
:100920008904d1000884d3000998a300050032008f
:100930000800a7000300a0008904d1000884d300a8
:100940008b05e8008904d1000884d3000001eb0086
:100950000281d2001000070001f0a1000cf0a700f6
:1009600001f0a000430037006420e10045003200a0
:100970000801be000200be00f7ff37006120e10061
:10098000400032006000b800f3ff37000000200094
:1009900001f82700f0ff370081002000618055003a
:1009a0000b003d000b00200061fe2f000100e10064
:1009b0001d00340082817100610164008904d1004e
:1009c0000884d3000000e800faff3a00710020001c
:1009d0006100640003007000020060000900320042
:1009e00061044400e0844c000988a5000500320041
:1009f0008b05e8006808e10002003a008904d10094
:100a00000884d300f20f20000258e10005003d00e9
:100a1000c75ddd00f907b200898075000800780025
:100a2000000006000bf827008b007800000005008e
:100a30000004be00610107000003be000405be0003
:100a40000200be005d010700844f75000000060033
:100a50000200be006450e100050036006420e100a1
:100a6000020036000968a30001003a000800be0039
:100a70000160a0004f0678004f05be004f04be0085
:100a800000000600f0ff2f00f1ff2700f9ff3700fc
:100a9000889fbe008a9fbe008c1f7800e4ff07007d
:100aa000ebff330003866c006450e1002400320049
:100ab0006420e100270032006150e1002200320092
:100ac0006120e100210032008b854200eb07b1007c
:100ad0000134b800003ab8000804420089844a0092
:100ae000013ab8000030b8008880400009014a008f
:100af00004003300000040008180480002014900ea
:100b00008b05e900c909dd00830170000100320096
:100b100013002000c814de004814dd004709de0081
:100b20001200b200c808de00088470009aff0700b7
:100b300001f0a1000cf0a70001f0a000cdff3700ec
:100b40006120e100cfff32000801be000200be00bc
:100b5000f7ff37006150e100fcff3a00c9ff3700a2
:100b6000889fbe008a9fbe008c9fbe0082057800d1
:100b70000004be00110107000800be006420e1006f
:100b80000700390002003a00f1ff2700f0ff2f00b4
:100b90000160a0001202200072408800550037005a
:100ba0006120e10003003a000b00a70001f82300d8
:100bb0005000370001f0a1000200210093642400de
:100bc000870007000800be0004003500b2fd2000c9
:100bd000930c2400a80007000004be000005eb00f1
:100be0000b00a6004f0dde0001f0a1000004be00c6
:100bf00032982f0023ea2300a5ff07000001eb0035
:100c000003f023000b00a70003f82300c1fe070038
:100c1000750007000000a7000a00a200930007006b
:100c20000b00e000030032000200200003f023006c
:100c3000b7fe070001f0a2000006be00020020007f
:100c40009304240092ff07000801be00b1fe0700d4
:100c5000809fbe000c00be0022a22a00d3a7230062
:100c60008bff07004f01be00aafe07000004be0074
:100c700001f0a100020020000398230058000700a3
:100c80000800be00190035000001be0080ff07000b
:100c90000006be00b2c52900e36223007cff070006
:100ca00022222b00f3942b009afe07000c01be00b9
:100cb00077ff0700e273280083c0230095fe07003a
:100cc0000c01be0072ff070042aa2a00a3e22b001b
:100cd00090fe07000c01be006dff07000801be007a
:100ce0006bff07000801be008afe07000a00a7008c
:100cf00001f0a2004f06be004f05be004f04be002b
:100d0000000006000001eb0095ff3700889fbe0041
:100d10008a9fbe008c1f78000004be00a700070059
:100d20000478a30026003a006120e100250032008b
:100d300009f8a30025003a006420e10021003200f8
:100d4000f507b1000508a3000200320000004000d2
:100d5000818048006044b800031020000200200099
:100d600000004000818048000805440089854c004f
:100d70000a0541008b8549000a0550008b85580003
:100d8000030033000a00be00020474008384740070
:100d90008301d1000281d300830f7100f0ff3a007c
:100da0008904d1000884d3006001490082017800e1
:100db000c1adde00fb07b000f7fe07002dff3700d6
:100dc0000960a0000800be002aff370012022000c0
:100dd00072408800f0ff2f00f1ff270025ff370049
:100de000140020008a0037000001be0073000700d5
:100df0000470a70003f0a1006509b10016003200dd
:100e00000d0035006828e10006003500f0ff2f00d6
:100e1000f1ff27000300e00013003b000100280061
:100e20000000050000004000818048008502e900c4
:100e3000fcff3a0008003700f88f420002003c0037
:100e40008000eb00000005008100d1000080d3008d
:100e50008502e800fcff3a000300e00002003b00ce
:100e600060001000e0801800000006004f89de00de
:100e70008201780081003700040020000000370064
:100e8000889fbe008a9fbe008c1f78004f26dd0021
:100e9000e7fe0700eefe33006120e1004300320070
:100ea0006250e10041003e003e0039006420e10054
:100eb0003c003200058255000f003b000402e800b0
:100ec00038003a00800f5300818f5b0035003400fa
:100ed0000800be0003f0a10001f0a60003f0a0008e
:100ee0000cf0a7000bfe0700e2fe370006034300ec
:100ef00087834b000c4646000005530081855b004c
:100f0000020033000a03be000c00a0000402e90046
:100f1000f6ff3b00850578000602430087824b0000
:100f200004003a006000b80009f0a70001f0a0003a
:100f3000d0fe37000002520081825a000704e00010
:100f4000040033000603430087834b008b05e90050
:100f5000faff3700090578000604be000203be0050
:100f60006011b8008cfe0700e00f5200e08f5a00bd
:100f70000700350002003c000c08a300040032000a
:100f80000601be0003f0a0000cf0a700e1fd070081
:100f90000a85680001f0a1000af0a70001f0a00096
:100fa000b4fe37000800be00b2fe37001002200079
:100fb0000cf0a60070408800b2fe3700c70ade00c1
:100fc000f107b200f50fb20008003200e1cf420095
:100fd000020032000170a00024000500810f7000a3
:100fe000010032000408050044000500810f700074
:100ff00002003a00140005008502e90000004000ec
:1010000081c04800fcff3b000170a00024000500e7
:10101000889fbe008a9fbe00841f780084fe070060
:101020004f00780011003300f0ff2f00838f6c0019
:1010300006003b00040565000a00a7000800370011
:1010400009f0a6001000200008003700820f5400ad
:10105000838f5c00030039001000200001003e0077
:101060000000200009f0a7000000ea004f05be00c4
:101070004f04be000000e00000000600881f78005a
:10108000030478000300e00007003d00600010004a
:10109000e080180060011900e081190002003b00a7
:1010a00001f02d00030037000400070008f0a7003e
:1010b00001f0a0004f04780000000600889fbe00e9
:1010c0008a9fbe00008270000402710004827100d9
:1010d000260032000004be000200be006011b8000d
:1010e0006b092000950220000182cf000a00390020
:1010f0000541b1000082cf00070039000541b10071
:101100000982cf00040039000541b1000882cf00f8
:10111000010039000541b1000542520012003200c1
:101120000a003b0082817100610164008100d100ee
:101130000080d3008984d3000884d3008b05e800a5
:101140000442e800f7ff3a000700370008044400b3
:1011500089844c0000004800818048008b05e9002c
:101160000442e900f9ff3a000bfe07004f05be00fc
:101170004f04be00000006000000e0002f00320017
:10118000c0017800e38f51002c0036000308a30053
:101190002a003a00414380000100e00002003200d2
:1011a000810f500004003100110098004043880076
:1011b0001600370082007800110190000200e00064
:1011c00002003200800f5100faff3900110278004e
:1011d00084824000850f500018003900808f520033
:1011e00003003a008308420001007800070037003e
:1011f0000200e0000300320083014000830f510031
:101200000e003900120098009000980090009000a5
:101210000100e0000900320010014000828f500000
:1012200006003a00628620000009eb0010017800f9
:101230001108410091009000110098000000060084
:10124000889fbe0000047800314380000100e00068
:1012500002003200010078000d0037004143800099
:101260008086200004003700910f540025003600ce
:101270000180e800910090000100e000faff3a00d0
:1012800010003700920f54001e0036000280e80064
:10129000100178000200e000faff3a001101780026
:1012a000414380008086200004003700910f5400e5
:1012b000140036000180e80091009000828f5000f9
:1012c000faff3a0059438000888f54000100310032
:1012d0008804780009007800360007000000e0006c
:1012e00004003a00888f5400050032008904d100c0
:1012f000f5ff3700091878009fff0700d2ff37007d
:101300000000eb004f04be0000000600881f7800bc
:10131000630440000800a1008000eb00800f54002f
:1013200021003600e30f540001003e004800200079
:1013300008007800c2ff07008000eb000000e0001a
:10134000190032009000780091017800648151000a
:10135000880f51000300310011019000020878004d
:1013600007003700088140000208780091019000d2
:101370001301980010017800110914008808780002
:10138000100178000000eb000200e00004003200d1
:10139000920190000300e000010032000280e800aa
:1013a000304388008180e800010078004f04780015
:1013b00000000600800078000000eb000100e00063
:1013c0000500340001007800affc0700e10f400089
:0c13d00001003a000000eb0000000600e5
:020000040000fa
:1013dc001400fa00881f7800200798003107980045
:1013ec004207980053079800640798007507980007
:1013fc00060f9800170f98002e0090000000e000d8
:10140c0011003a003840800080032000bcff070028
:10141c008000780008014400608220000000410038
:10142c00010878003040800080004000608220007d
:10143c000080400090007800210798003040800028
:10144c000000e800304088003e0090000000e00002
:10145c002d003a002e0090004e019000de0190000d
:10146c000288be002e0090006e019000fe019000dc
:10147c0022009800330098002e0090000e09900076
:10148c009e09900042009800530098002e00900096
:10149c003eb99700ceb9970062009800730098008f
:1014ac002e0090001eb99700aeb997000208980064
:1014bc00130898002e0090007eb197008eb997000b
:1014cc0022089800330898002e0090005eb1970017
:1014dc00eeb1970042089800530898002e00900037
:1014ec003eb19700ceb1970062089800730898003f
:1014fc002e0090001eb19700aeb19700021098001c
:10150c0013109800220037000000eb00000f780049
:10151c001c0037000000eb00100798001500370086
:10152c001e0078006c00b90000007800be0090002e
:10153c00808040001e0090004200dd0000804000d2
:10154c001000be002e0290001e0178006311b9003d
:10155c00820178001e019000028141004211dd00e1
:10156c00020142000089be001e0090000000e8004d
:10157c00100798001e009000e20f5000e8ff3400a6
:10158c001e0fe8001e007800e20f5000e1ff34004f
:10159c002e009000a1b12000411098002e00900068
:1015ac0021ba2000511098002e009000a1c22000fa
:1015bc00611098002e00900001d02000711098004e
:1015cc002e00900061df2000011898002e00900082
:1015dc0061e72000111898002e00900061f62000a1
:1015ec00211898002e009000c11521003118980088
:1015fc002e0090004f0478000080fa0000000600d6
:10160c000400fa00000f7800214798002e4090004b
:10161c000004e000020032001e007800d3fe070038
:10162c000080fa00000006000a00fa00300798005b
:10163c00410798006000b800809fbe006000b800b1
:10164c00809fbe006000b800809fbe006000b800a4
:10165c00809fbe006000b800809fbe006000b80094
:10166c00809fbe006033b8006022b8006011b800e3
:10167c008000eb000000eb0055ff0700f8875700d7
:10168c00200798000000eb00000f780024003700c2
:10169c000000eb00100798001d003700be00900002
:1016ac001e0078004400dd00008040001002be00e7
:1016bc004e0190001e0078006300b9008000780095
:1016cc001e009000008040004200dd000000410040
:1016dc001000be000001be000400be000afc0700a2
:1016ec002e0290001e0178006311b900820178006f
:1016fc001e019000028141004211dd0002014200f6
:10170c000089be001e0090000000e8001007980041
:10171c001e009000e20f5000e0ff34001e0fe800a6
:10172c001e007800e20f5000d9ff34002e0090000c
:10173c000080fa00000006000a00fa00300798004a
:10174c00410798006000b800809fbe006000b800a0
:10175c00809fbe006000b800809fbe006000b80093
:10176c00809fbe006000b800809fbe006000b80083
:10177c00809fbe006033b8006022b8006011b800d2
:10178c008000eb000000eb0011ff0700f88757000a
:10179c00200798000000eb00000f780024003700b1
:1017ac000000eb00100798001d003700be009000f1
:1017bc001e0078004400dd00008040001002be00d6
:1017cc004e0190001e0078006300b9008000780084
:1017dc001e009000008040004200dd00000041002f
:1017ec001000be000001be000400be00c5fb0700d7
:1017fc002e0290001e0178006311b900820178005e
:10180c001e019000028141004211dd0002014200e4
:10181c000089be001e0090000000e8001007980030
:10182c001e009000e20f5000e0ff34001e0fe80095
:10183c001e007800e20f5000d9ff34002e009000fb
:10184c000080fa00000006000a00fa00889fbe0023
:10185c0030079800410798006000b800809fbe00d8
:10186c006000b800809fbe006000b800809fbe0082
:10187c006000b800809fbe006000b800809fbe0072
:10188c006000b800809fbe006033b8006022b800d2
:10189c006011b8008000eb000000eb00ccfe0700ec
:1018ac00f8875700200798000000eb00000f780025
:1018bc00490037000000eb00100798004200370089
:1018cc003e0190001e0078006c00b900000078000a
:1018dc00000041001002be00ce0090001e009000df
:1018ec004200dd00008040001000be000001be0080
:1018fc000400be0063fc07000004be003e01900023
:10190c001e0078006c00b9000000780064004000f4
:10191c00000041001002be00ce0090001e0090009e
:10192c00630040004200dd00008040001000be005b
:10193c000001be000400be0052fc07000001be0006
:10194c000800be0070fb07000004be003e019000c2
:10195c001e0078006c00b9000000780068004000a0
:10196c00000041001002be00ce0090001e0090004e
:10197c00660040004200dd00008040001000be0008
:10198c000001be000400be003efc07000001be00ca
:10199c000800be005cfb07002e0290001e017800c0
:1019ac006311b900820178001e0190000281410090
:1019bc004211dd00020142000089be001e009000b1
:1019cc000000e800100798001e009000e20f500085
:1019dc00bbff34001e0fe8001e007800e20f500021
:1019ec00b4ff34002e0090004f04be000080fa00bb
:1019fc00000006000600fa00889fbe001007980041
:101a0c00210798006033b8006022b8006011b8005c
:101a1c000000eb008b050700000f78001e00900003
:101a2c001002be002e0090001000be000001be008f
:101a3c000400be0013fc07000004be001e00900052
:101a4c0020029000b00290002e009000b000900098
:101a5c00200090000001be000400be0009fc07003d
:101a6c000001be000800be0027fb07000004be00fa
:101a7c001e00900040029000d00290002e009000ba
:101a8c00d0009000400090000001be000400be0099
:101a9c00fcfb07000001be000800be001afb07009b
:101aac001e0178000089be001e00900060029000ac
:101abc00f00290002e0090001000be000001be004d
:101acc000400be00effb07000004be001e009000e7
:101adc00000a9000900a90002e009000b000900038
:101aec00200090000001be000400be00e5fb0700d2
:101afc000001be000800be0003fb07000004be008e
:101b0c001e009000200a9000b00a90002e00900059
:101b1c00d0009000400090000001be000400be0008
:101b2c00d8fb07000001be000800be00f6fa070053
:101b3c001e01780020019800310198001e009000d1
:101b4c00400a9000d00a90002e0090001000be00b9
:101b5c000001be000400be00cafb07000004be006a
:101b6c001e009000600a9000f00a90002e00900079
:101b7c00b0009000200090000001be000400be00e8
:101b8c00c0fb07000001be000800be00defa070023
:101b9c000004be001e0090000012900090129000f5
:101bac002e009000d0009000400090000001be007c
:101bbc000400be00b3fb07000001be000800be001d
:101bcc00d1fa07001e0178004001980051019800dd
:101bdc001e0078004f04be000080fa0000000600d2
:101bec000c00fa0030079800420798005307980041
:101bfc006000b800809fbe006000b800809fbe00ef
:101c0c006000b800809fbe006000b800809fbe00de
:101c1c006000b800809fbe006000b800809fbe00ce
:101c2c006033b8006022b8006011b8008000eb008f
:101c3c000000eb00e6fd0700f8875700200798002e
:101c4c000000eb00000f78001f0037000000eb00d5
:101c5c0010079800180037003e0190001e00780015
:101c6c006300b900800078001e00900000804000e6
:101c7c004200dd00000041001000be004e0190004b
:101c8c00de0190007ffb07002e0290001e01780001
:101c9c006311b900820178001e019000028141009d
:101cac004211dd00020142000089be001e009000be
:101cbc000000e800100798001e009000e20f500092
:101ccc00e5ff34001e0fe8001e007800e20f500004
:101cdc00deff34002e0090000080fa0000000600a9
:101cec000200fa00889fbe00000f78001e007800ea
:101cfc001002be001e0078009008900000089000b2
:101d0c000001be000400be005efb07000002be0026
:101d1c001e00780090109000001090000001be0092
:101d2c000400be0057fb07000004be001e00780034
:101d3c0060029000f00290001e007800f008900005
:101d4c00600890000001be000400be004dfb0700bf
:101d5c000002be001e007800d000900040009000f1
:101d6c000001be000400be0046fb07000001be00df
:101d7c000800be0064fa07000004be001e007800d4
:101d8c00400a9000d00a90001e007800b00090002d
:101d9c00200090000001be000400be0039fb0700cb
:101dac000002be001e007800b008900020089000d1
:101dbc000001be000400be0032fb07000001be00a3
:101dcc000800be0050fa07000004be001e00780098
:101ddc00400a9000d00a90001e00780090089000f5
:101dec00000890000001be000400be0025fb0700a7
:101dfc000002be001e007800d00090004000900051
:101e0c000001be000400be001efb07000001be0066
:101e1c000800be003bfa07000004be001e0078005c
:101e2c0060029000f00290001e007800b00090005c
:101e3c00200090000001be000400be0011fb070052
:101e4c000002be001e007800901090000010900060
:101e5c000001be000400be000afb07000001be002a
:101e6c000800be0027fa07000004be001e00780020
:101e7c001002be001e007800f00890006008900070
:101e8c000001be000400be00fefa07000002be0006
:101e9c001e007800b0089000200890000001be00e1
:101eac000400be00f7fa07000001be000800be00e7
:101ebc0014fa07004f04be000080fa000000060070
:101ecc000400fa00889fbe00100798006000b8005c
:101edc00809fbe006000b800809fbe006000b8000c
:101eec00809fbe006000b800809fbe006000b800fc
:101efc00809fbe006000b800809fbe006033b800b9
:101f0c006022b8006011b8008000eb000000eb000c
:101f1c002ffd0700f8875700000f78001e00900077
:101f2c00000a9000900a90001e0090009010900003
:101f3c00001090000001be000400be00d1fa0700a2
:101f4c000004be001e009000200a9000b00a900011
:101f5c001e009000f0089000600890000001be0088
:101f6c000400be00c7fa07000001be000800be0056
:101f7c00e4f907001e0178000089be001e009000e5
:101f8c0020029000b00290001e0090009010900073
:101f9c00001090000001be000400be00b9fa07005a
:101fac000004be001e009000600a9000f00a900031
:101fbc001e009000d0009000400090000001be0078
:101fcc000400be00affa07000001be000800be000e
:101fdc00ccf9070001f0a2001e0178002001980046
:101fec00310198001e00900020029000b002900079
:101ffc001e009000b0089000200890000001be0068
:10200c000400be009ffa07000004be001e009000f2
:10201c00000a9000900a90001e009000d0009000e2
:10202c00400090000001be000400be0095fa0700bd
:10203c000001be000800be00b2f907001e017800c6
:10204c0040019800510198001e0090006002900021
:10205c00f00290001e009000901090000010900074
:10206c000001be000400be0086fa07000004be009a
:10207c001e009000400a9000d00a90001e009000b4
:10208c00b0089000200890000001be000400be00c3
:10209c007cfa07000001be000800be0099f9070099
:1020ac0001f0a2001e0178006001980071019800f7
:1020bc001e0090001002be001e00900090109000b8
:1020cc00001090000001be000400be006dfa070075
:1020dc000004be001e009000400a9000d00a900040
:1020ec001e009000d0009000400090000001be0047
:1020fc000400be0063fa07000001be000800be0029
:10210c0080f907001e017800000998001109980059
:10211c001e0090001002be001e009000b00890003f
:10212c00200890000001be000400be0055fa070014
:10213c000004be001e00900060029000f0029000af
:10214c001e009000d0009000400090000001be00e6
:10215c000400be004bfa07000001be000800be00e0
:10216c0068f9070001f0a2001e0178002009980010
:10217c00310998001e00900060029000f00290005f
:10218c001e009000f0089000600890000001be0056
:10219c000400be003bfa07000004be001e009000c5
:1021ac00400a9000d00a90001e0090009008900009
:1021bc00000890000001be000400be0031fa0700c8
:1021cc000001be000800be004ef907001e01780099
:1021dc0040099800510998001e0090001002be00a2
:1021ec001e009000f0089000600890000001be00f6
:1021fc000400be0023fa07000004be001e0090007d
:10220c00400a9000d00a90001e009000b000900090
:10221c00200090000001be000400be0019fa070067
:10222c000001be000800be0036f9070001f0a20054
:10223c001e01780060099800710998001e0090003a
:10224c001002be001e009000900890000008900044
:10225c000001be000400be000afa07000004be0024
:10226c001e00900060029000f00290001e00900092
:10227c00b0009000200090000001be000400be00e1
:10228c0000fa07000001be000800be001df907009f
:10229c001e01780000119800111198001e007800a2
:1022ac004f04be000080fa00000006000800fa008f
:1022bc00889fbe008a1f7800300798006000b80025
:1022cc00809fbe006000b800809fbe006000b80018
:1022dc00809fbe006000b800809fbe006000b80008
:1022ec00809fbe006000b800809fbe006033b800c5
:1022fc006022b8006011b8008000eb000000eb0019
:10230c0033fc0700f8875700000f78003e00900060
:10231c0073fe070010079800210798003e009000fc
:10232c00e7fe0700001d90001e019000ae0190001a
:10233c000000200001f8230052f907000004be0041
:10234c003e009000defe07000801be000a000100fe
:10235c00000f78001e0078004f0578004f04be0077
:10236c000080fa00000006000200fa00889fbe0000
:10237c008a9fbe0000002000010c2400809fbe003c
:10238c006000b800809fbe006000b800809fbe0057
:10239c006000b800809fbe0000002000010c2400eb
:1023ac00809fbe006000b800809fbe006033b80004
:1023bc006022b80002002000030c24008000eb0017
:1023cc000000eb0002fc0700f88757005040880023
:1023dc000000200001122400809fbe006000b800a5
:1023ec00809fbe006000b800809fbe006000b800f7
:1023fc00809fbe000000200001122400809fbe00c0
:10240c006000b800809fbe006033b8006022b80046
:10241c0002002000031224008000eb000000eb00ff
:10242c00ebfb0700f8875700604088000000200095
:10243c00c12024005041880061418800d0cc2c0080
:10244c00c1fa23007041880081418800f0282c00db
:10245c0051d7230090418800a1418800b072280018
:10246c0061e12300b0418800c1418800c09f2a006f
:10247c0011e72300d0418800e1418800b44180007d
:10248c00c5418000d0418000e14180000001be00c8
:10249c000400be009cf8070002002000030024008a
:1024ac00f8f80700f041880001428800e0ed2100b7
:1024bc00418023001042880021428800704d230087
:1024cc00f1ce23003042880041428800d0e328003e
:1024dc00e1ce2300504288006142880000002000b9
:1024ec00a13324007042880081428800109524009a
:1024fc00d191230090428800a1428800608f220075
:10250c00c1f12300b0428800c142880070428000b3
:10251c00814280000001be005af907000002be0093
:10252c0010428000214280000001be000400be0069
:10253c0054f907000004be0090418000a1418000c6
:10254c000001be004ff907000001be000800be00ec
:10255c00ccf80700d0428800e1428800704280002d
:10256c00814280000001be0046f907000004be0055
:10257c009a428000ab428000344280004542800089
:10258c0050428000614280000001be000400be0089
:10259c003cf907000002be00b0428000c14280003e
:1025ac000001be000400be00b6f807000001be002a
:1025bc000a00be0054f807000001be000800be006f
:1025cc0030f907000004be0090418000a14180005a
:1025dc000001be002bf907000001be000800be0080
:1025ec00a8f80700f042880001438800744280007c
:1025fc008542800030428000414280000001be00d4
:10260c000400be001ff907000002be0090418000cc
:10261c00a14180000001be000400be0099f8070033
:10262c000002be00b0428000c14280000001be002a
:10263c000400be0093f80700104388002143880073
:10264c002d040700c30307000000eb00000f780007
:10265c0010118000680060000000e00001003200f2
:10266c002900370010118000620060000000e000bb
:10267c00020032002222a900230037001011800032
:10268c00220007000000eb00000f78000800370064
:10269c001e00780080004000608220000080400016
:1026ac001000780011c0b300d5fb07001e0fe80026
:1026bc00304080009e007800808f5000f4ff340082
:1026cc000000eb00000f7800080037001e007800b7
:1026dc0080004000808220000080400010007800c4
:1026ec0011c0b3009a0207001e0fe80040408000a2
:1026fc009e007800808f5000f4ff34000628ef0015
:10270c000828ef00d0ff3700cfff37000400fa0095
:10271c0003c8bf000004e00003003200c402a8009c
:10272c00c482a800c502a80002c8bf000004e000d3
:10273c0003003200c402a900c482a900c502a9008a
:10274c00204080000000e00021003a00a040800002
:10275c000041880001418000f00f200000806000e3
:10276c000041880001418000b04080004800dd003d
:10277c000100700000418800c040800010418800ba
:10278c0011418000f00f2000008060001041880093
:10279c0011418000d04080004800dd000100700035
:1027ac0010418800e04080002041880021418000d9
:1027bc00f00f200000806000204188002141800043
:1027cc00f04080004800dd000100700020418800ce
:1027dc000000eb00000f78000000eb00000f780009
:1027ec00230037000000eb00100798001e00780053
:1027fc0080004000008220000080400090007800a3
:10280c000000280000806000100798001e00900057
:10281c000000e000110032001e0078008000400033
:10282c00008220000080400090007800f0ff27001c
:10283c00808060001e0078000001400000822000b3
:10284c000000410001087800008120001e004000bb
:10285c008040eb0001487800040037000081200024
:10286c001e00400011c0b300014878001e0fe800a4
:10287c001e007800e20f5000daff340000812000c7
:10288c00104078000080fb006100600000004000f8
:10289c00211680000110a100010070002016880094
:1028ac0010812000104078000080fb006100600067
:1028bc004700dd00211680000170a10001007000ae
:1028cc002016880020812000104078000080fb003a
:1028dc00610060004900dd00211680000190a1001c
:1028ec000100700020168800004180006500b900ce
:1028fc0080007800300020000001780011000900f1
:10290c008200d800b00e8800104180006500b9002c
:10291c0080007800300020000001780011000900d0
:10292c008200d800c00e8800204180006500b900ec
:10293c0080007800300020000001780011000900b0
:10294c008200d800d00e88000080fa00000006003b
:10295c00809fbe00821f78003400f8000000200029
:10296c00a00188000000fa003011800000407800bf
:10297c0000e8b700018020009140780070c6b300d9
:10298c0080cf500003003a0010c0b30002e8b7003b
:10299c0021003700018020009140780030c7b3003f
:1029ac0080cf500004003a0010c0b30003e8b70019
:1029bc000268ef0018003700018020009140780079
:1029cc0050c7b30080cf500004003a0050072000dd
:1029dc00201188000428ef000f00370020408000f1
:1029ec0001802000914078008100fb000001400034
:1029fc004081200000004100010878002040800048
:102a0c000000e8002040880020408000e50f5000c6
:102a1c00010034000428ef008560a9000080fa0052
:102a2c003400f9004f0178004f00be000040060052
:102a3c003400f800881f780008002000a8018800e6
:102a4c004f0478000000fa008580a9000080fa008d
:102a5c003400f900004006002400fa00889fbe00f4
:102a6c008a9fbe008c9fbe00300f9800410f9800cb
:102a7c00520f9800630f9800740f98006e08900026
:102a8c00d0009000400090007cf707000006be00cc
:102a9c006e089000d00090004000900096f807005f
:102aac000005be006e089000d00090004000900021
:102abc0091f807000004be0009f0a2006e08900017
:102acc00d0009000400090006cf70700020020003e
:102adc0003f82300829fbe006011b800829fbe00e5
:102aec006011b800829fbe006011b800829fbe00ca
:102afc008c9fbe008a9fbe006033b8000802be00e7
:102b0c000001be008000eb000000eb0030fa070073
:102b1c00f8875700000f78006e089000d0009000e6
:102b2c004000900074f807000002be0005f0a200ff
:102b3c007e089000d0009000400090000001be0084
:102b4c000400be00cff707000006be006e08900020
:102b5c00d00090004000900048f707000002be0033
:102b6c007e089000d0009000400090000001be0054
:102b7c000400be00c3f707000005be006e089000fd
:102b8c00d0009000400090003cf707000002be000f
:102b9c0005f0a2007e089000d0009000400090004c
:102bac000001be000400be00b6f707000004be0022
:102bbc006e089000d0009000400090004ef8070086
:102bcc000002be0005f0a2007e089000d00090002c
:102bdc00400090000001be000400be00a9f70700f1
:102bec006011b800829fbe006011b800829fbe00c9
:102bfc006011b800829fbe006011b800829fbe00b9
:102c0c008c9fbe008a9fbe006033b8000802be00d5
:102c1c000001be008000eb000000eb00ecf90700a7
:102c2c00f887570010079800d0428000e1428000de
:102c3c00020020000304240092f707000004be00e9
:102c4c00f0418000014280000001be008df70700ba
:102c5c000001be000800be008af707000002be009b
:102c6c0070418000814180000001be000400be0064
:102c7c00a5f607000005be00d0428000e1428000ae
:102c8c000200200003fc23007ef707000002be00b8
:102c9c0050418000614180000001be000400be0074
:102cac0099f607000004be00d0428000e14280008b
:102cbc000200200003fc230072f707000002be0094
:102ccc0050418000614180000001be000400be0044
:102cdc008df607008a9fbe006011b800829fbe006f
:102cec006011b800829fbe006011b800829fbe00c8
:102cfc00889fbe006011b800829fbe006033b80090
:102d0c006022b8000001be008000eb000000eb0068
:102d1c00aff90700f887570020079800f0428000b1
:102d2c0001438000020020000304240055f7070033
:102d3c000004be00f0418000014280000001be0092
:102d4c0050f707000001be000800be004df7070059
:102d5c000001be000217980013179800f042800083
:102d6c00014380000200200003fc230045f707000c
:102d7c000006be0054418000654180007e08900032
:102d8c00d0009000400090000001be000400be0086
:102d9c003cf707000005be005041800061418000f7
:102dac000002be0005f0a2007e089000d00090004a
:102dbc00400090000001be000400be0031f7070087
:102dcc000004be00f042800001438000020020009d
:102ddc0003fc23002bf707000e1190009e119000ae
:102dec00829fbe006011b800829fbe006011b800c7
:102dfc00829fbe006011b800829fbe008c9fbe00f7
:102e0c008a9fbe006033b8000802be000001be00fd
:102e1c008000eb000000eb006df90700f88757000d
:102e2c00300798006e089000d00090004000900091
:102e3c0092f607000006be006e089000d0009000cd
:102e4c0040009000acf707000005be000bf0a2009c
:102e5c006e089000d000900040009000a6f707008c
:102e6c000004be006e089000d0009000400090005e
:102e7c0082f607000200200003f82300829fbe00a8
:102e8c006011b800829fbe006011b800829fbe0026
:102e9c006011b800829fbe008c9fbe008a9fbe004e
:102eac006033b8000802be000001be008000eb00d9
:102ebc000000eb0046f90700f88757004007980020
:102ecc00ce0090002e0090005ffa0700500798008b
:102edc00ce0090001e0090005bfa07008000780086
:102eec004e00900058fa0700800078002e009000e9
:102efc0055fa070000047800ce0090003e009000c8
:102f0c0051fa0700880078000bfa07006007980058
:102f1c00f441800005428000f241800003428000b1
:102f2c00f041800001428000849fbe00829fbe0061
:102f3c00809fbe006000b800809fbe00d0222b0096
:102f4c00d1f52b00809fbe00d0222b00d1f52300a1
:102f5c00809fbe000600200007f82300040020001c
:102f6c0005f02b000200200003f02b008000eb008a
:102f7c000000eb0016f90700f8875700700798005f
:102f8c0010438000214380000001be007e009000b1
:102f9c0013fb0700000f9800be0890006e0890000d
:102fac009e000700800078005040800091fa0700d6
:102fbc0000047800ce0890007e089000970007006f
:102fcc0080007800604080008afa07008800780052
:102fdc0069000700800078005e0890008f000700f1
:102fec00800078005e00900082fa070000047800f0
:102ffc000e089000adfc0700880078007dfa0700f1
:10300c00100f98000e089000a8fc0700ee0090002e
:10301c000dfa0700fe08900076fa07008000780091
:10302c001e08900054000700200f98002e089000f6
:10303c004f06be004f05be004f04be000080fa00d4
:10304c00000006000e00fa00881f7800000f7800c0
:10305c00120798002307980034079800450798003a
:10306c0056079800670798001e0078000000e000e3
:10307c0010003a0048408000e0012000a0f8070052
:10308c00800078000801440080822000000041008c
:10309c0001087800404080008000400080822000c1
:1030ac0000804000100f7800404080000000e800d5
:1030bc00404088001e0078001e019000ae01900078
:1030cc000288be001e0078003e019000ce019000e8
:1030dc0022009800330098001e0078005e019000da
:1030ec00ee01900042009800530098001e007800fa
:1030fc00218c2100010898001e00780041912100cc
:10310c00110898001e007800619621002108980093
:10311c001e007800619b2100310898001e00780089
:10312c00a19f2100410898001e00780061a2210097
:10313c00510898001e00780061a7210061089800d2
:10314c001e0078004f0478000080fa000000060092
:10315c000400fa00000f7800214798002e409000e0
:10316c000004e000020032001e007800fff70700a8
:10317c000080fa00000006000400fa00889fbe00e0
:10318c008a9fbe00000f7800110798001e0078007f
:10319c0040029000d00290001e009000d0009000e1
:1031ac00400090000001be000400be0056f5070070
:1031bc000005be001e00780020029000b0029000b6
:1031cc001e009000b0009000200090000001be0096
:1031dc000400be004cf507000004be001e00780081
:1031ec001002be001e0090001000be000001be00c8
:1031fc000400be0044f507000a03be000802be002e
:10320c000001be000000eb008eff07004f05be0062
:10321c004f04be000080fa00000006000400fa0013
:10322c00889fbe008a9fbe00000f7800110798008f
:10323c001e00780040029000d00290001e0090000a
:10324c00d0009000400090000001be000400be00c1
:10325c002cf507000005be001e007800200290002f
:10326c00b00290001e009000b00090002000900072
:10327c000001be000400be0022f507000004be00e1
:10328c001e0078001002be001e0090001000be0050
:10329c000001be000400be001af507000a03be00c0
:1032ac000802be000001be000000eb0065ff070035
:1032bc004f05be004f04be000080fa00000006005f
:1032cc000400fa00889fbe00000f780011079800d8
:1032dc001e0078001002be001e0090001000be0000
:1032ec000001be000400be00e6f507000004be00ad
:1032fc001e00780020029000b00290001e0090008a
:10330c00b0009000200090000001be000400be0040
:10331c00dcf507000001be000800be00faf407004f
:10332c000004be001e00780040029000d002900005
:10333c001e009000d0009000400090000001be00e4
:10334c000400be00cff507000001be000800be005f
:10335c00edf407004f04be000080fa0000000600e8
:10336c000600fa00889fbe008a9fbe00000f7800fe
:10337c0012079800230798001e007800d0009000d8
:10338c00400090001e019000ae019000bdf50700ba
:10339c000005be001e007800b000900020009000d8
:1033ac001e019000ae019000b6f507000004be00af
:1033bc001e0078001000be001e019000ae019000af
:1033cc00b0f507000a03be000802be000001be00f3
:1033dc000000eb001bff07004f05be004f04be00b2
:1033ec000080fa00000006000400fa00000f7800cc
:1033fc00110798001e0090001000be001e017800fe
:10340c000089be001e009000b000900020009000cb
:10341c001e01780020019800310198001e009000d8
:10342c00d0009000400090001e01780040019800f0
:10343c00510198001e0078000080fa000000060080
:10344c000200fa00889fbe00000f78001e00780072
:10345c001002be001e0078001000be000001be006d
:10346c000400be0087f507000004be001e007800b3
:10347c0020029000b00290001e007800b000900076
:10348c00200090000001be000400be007df5070086
:10349c000001be000800be009bf407000004be0043
:1034ac001e00780040029000d00290001e007800b0
:1034bc00d0009000400090000001be000400be004f
:1034cc0070f507000001be000800be008ef4070076
:1034dc000bf607004f04be000080fa000000060047
:1034ec000600fa00200798002e009000d4ff070079
:1034fc00008fbe002e0090001000be001e01be000a
:10350c00e0f407002e0190000089be002e00900010
:10351c00b0009000200090001e01be00d9f40700fe
:10352c002e01900020019800310198002e0090008f
:10353c00d0009000400090001e01be00d1f40700a6
:10354c002e01900040019800510198000080fa0073
:10355c00000006000000fa00103a8000000178001c
:10356c000260a1006004200071052000237420007b
:10357c0080497800814978008249780021358000a3
:10358c0000fe2f00008060000020a0002035880085
:10359c000136800000fe2f00008060003000b30078
:1035ac0000368800103a8000000178000260a0000c
:1035bc0060042000710520002374200080497800ed
:1035cc008149780082497800c002a900c022a90074
:1035dc00c082a900c0e2a900c102a900c122a900b1
:1035ec0003000700160007000080fa000000060028
:1035fc000000fa0000002800000e8800c221ef0035
:10360c00f07c2000200e8800f0ff2000400e880087
:10361c0000042000500e880000f02f00a00e88003f
:10362c0040062000b00e8800800c2000c00e8800e0
:10363c00803e2000d00e88000080fa0000000600ba
:10364c000200fa002002a9000111800090ff2f0057
:10365c00008060000011880020a2a9002062a9004f
:10366c0020c2a900a00220004011880023a2a900ba
:10367c0023e2a90011118000f0f32f0000806000fc
:10368c00101188009580a8009560a80021e2a80080
:10369c002342a8000000eb00000f78000200370066
:1036ac00000000001e0fe800f00321009e007800cf
:1036bc00808f5000faff34000080fa0000000600f2
:1036cc000400fa00100798000000eb00000f7800cf
:1036dc000000eb00000f7800010037001e0fe8001f
:1036ec001e0090009e007800808f5000fbff35007c
:1036fc000080fa00000006000000fa009002200092
:10370c00303a8800213a8000f0f32f0000806000ee
:10371c00203a8800213a800000fe2f0000806000d3
:10372c00203a880050012000403a880040a7a900a8
:10373c003200200080072000a109200033742000f3
:10374c008049780081497800824978001200200075
:10375c00600420007105200023742000804978004b
:10376c00814978008249780000000000113a8000fd
:10377c00000027008080600000002300808f500034
:10378c00faff3a0000000000113a8000000220000d
:10379c00008060000000e000fbff32000080fa00b7
:0437ac000000060013
:020000040000fa
:1037b0001008000056000000000000000008000093
:1037c0000e000000000000000e08000002000000d3
:1037d000000000006a080000020000000200000073
:1037e0000400000066080000040000000000000063
:1037f0006c08000002000000000000000000000053
:020000040000fa
:0200000401f009
:04000000ffff0000fe
:020000040000fa
:0200000401f009
:04000400ffff0000fa
:020000040000fa
:0200000401f009
:04000800ffff0000f6
:020000040000fa
:0200000401f009
:04000c00820000006e
:020000040000fa
:0200000401f009
:040010006500000087
:020000040000fa
:0200000401f009
:040014005f00000089
:020000040000fa
:0200000401f009
:04001800770000006d
:020000040000fa
:0200000401f009
:04001c00ddff000004
:00000001FF
