:020000040000fa
:080000000002040000000000f2
:020000040000fa
:04000800860300006b
:020000040000fa
:04000c004a030000a3
:020000040000fa
:040010005003000099
:020000040000fa
:04001400560300008f
:020000040000fa
:040018005c03000085
:020000040000fa
:04001c00620300007b
:020000040000fa
:040020008603000053
:020000040000fa
:04002400860300004f
:020000040000fa
:04002800860300004b
:020000040000fa
:04002c008603000047
:020000040000fa
:040030008603000043
:020000040000fa
:04003400860300003f
:020000040000fa
:04003800860300003b
:020000040000fa
:04003c008603000037
:020000040000fa
:040040008603000033
:020000040000fa
:04004400860300002f
:020000040000fa
:04004800860300002b
:020000040000fa
:04004c008603000027
:020000040000fa
:040050008603000023
:020000040000fa
:04005400c8020000de
:020000040000fa
:04005800360300006b
:020000040000fa
:04005c008603000017
:020000040000fa
:040060008603000013
:020000040000fa
:04006400860300000f
:020000040000fa
:04006800860300000b
:020000040000fa
:04006c008603000007
:020000040000fa
:040070008603000003
:020000040000fa
:0400740086030000ff
:020000040000fa
:0400780086030000fb
:020000040000fa
:04007c0086030000f7
:020000040000fa
:0400800086030000f3
:020000040000fa
:0400840086030000ef
:020000040000fa
:0400880086030000eb
:020000040000fa
:04008c0086030000e7
:020000040000fa
:0400900086030000e3
:020000040000fa
:0400940086030000df
:020000040000fa
:0400980086030000db
:020000040000fa
:04009c0086030000d7
:020000040000fa
:0400a00086030000d3
:020000040000fa
:0400a40086030000cf
:020000040000fa
:0400a80086030000cb
:020000040000fa
:0400ac0086030000c7
:020000040000fa
:0400b00086030000c3
:020000040000fa
:0400b40086030000bf
:020000040000fa
:0400b80086030000bb
:020000040000fa
:0400bc0086030000b7
:020000040000fa
:0400c00086030000b3
:020000040000fa
:0400c40086030000af
:020000040000fa
:0400c80086030000ab
:020000040000fa
:0400cc0086030000a7
:020000040000fa
:0400d00086030000a3
:020000040000fa
:0400d400860300009f
:020000040000fa
:0400d800860300009b
:020000040000fa
:0400dc008603000097
:020000040000fa
:0400e0008603000093
:020000040000fa
:0400e400860300008f
:020000040000fa
:0400e800860300008b
:020000040000fa
:0400ec008603000087
:020000040000fa
:0400f0008603000083
:020000040000fa
:0400f400860300007f
:020000040000fa
:0400f800860300007b
:020000040000fa
:0400fc008603000077
:020000040000fa
:040100008603000072
:020000040000fa
:04010400860300006e
:020000040000fa
:04010800860300006a
:020000040000fa
:04010c008603000066
:020000040000fa
:040110008603000062
:020000040000fa
:04011400860300005e
:020000040000fa
:04011800860300005a
:020000040000fa
:04011c008603000056
:020000040000fa
:040120008603000052
:020000040000fa
:04012400860300004e
:020000040000fa
:04012800860300004a
:020000040000fa
:04012c008603000046
:020000040000fa
:040130008603000042
:020000040000fa
:04013400860300003e
:020000040000fa
:04013800860300003a
:020000040000fa
:04013c008603000036
:020000040000fa
:040140008603000032
:020000040000fa
:04014400860300002e
:020000040000fa
:04014800860300002a
:020000040000fa
:04014c008603000026
:020000040000fa
:040150008603000022
:020000040000fa
:04015400860300001e
:020000040000fa
:04015800860300001a
:020000040000fa
:04015c008603000016
:020000040000fa
:040160008603000012
:020000040000fa
:04016400860300000e
:020000040000fa
:040208008603000069
:020000040000fa
:04020c006803000083
:020000040000fa
:040210006e03000079
:020000040000fa
:04021400740300006f
:020000040000fa
:040218007a03000065
:020000040000fa
:04021c00800300005b
:020000040000fa
:040220008603000051
:020000040000fa
:04022400860300004d
:020000040000fa
:040228008603000049
:020000040000fa
:04022c008603000045
:020000040000fa
:040230008603000041
:020000040000fa
:04023400860300003d
:020000040000fa
:040238008603000039
:020000040000fa
:04023c008603000035
:020000040000fa
:040240008603000031
:020000040000fa
:04024400860300002d
:020000040000fa
:040248008603000029
:020000040000fa
:04024c008603000025
:020000040000fa
:040250008603000021
:020000040000fa
:04025400860300001d
:020000040000fa
:040258008603000019
:020000040000fa
:04025c008603000015
:020000040000fa
:040260008603000011
:020000040000fa
:04026400860300000d
:020000040000fa
:040268008603000009
:020000040000fa
:04026c008603000005
:020000040000fa
:040270008603000001
:020000040000fa
:0402740086030000fd
:020000040000fa
:0402780086030000f9
:020000040000fa
:04027c0086030000f5
:020000040000fa
:0402800086030000f1
:020000040000fa
:0402840086030000ed
:020000040000fa
:0402880086030000e9
:020000040000fa
:04028c0086030000e5
:020000040000fa
:0402900086030000e1
:020000040000fa
:0402940086030000dd
:020000040000fa
:0402980086030000d9
:020000040000fa
:04029c0086030000d5
:020000040000fa
:0402a00086030000d1
:020000040000fa
:0402a40086030000cd
:020000040000fa
:0402a80086030000c9
:020000040000fa
:0402ac0086030000c5
:020000040000fa
:0402b00086030000c1
:020000040000fa
:0402b40086030000bd
:020000040000fa
:0402b80086030000b9
:020000040000fa
:0402bc0086030000b5
:020000040000fa
:0402c00086030000b1
:020000040000fa
:0402c40086030000ad
:020000040000fa
:0402c80086030000a9
:020000040000fa
:0402cc0086030000a5
:020000040000fa
:0402d00086030000a1
:020000040000fa
:0402d400860300009d
:020000040000fa
:0402d8008603000099
:020000040000fa
:0402dc008603000095
:020000040000fa
:0402e0008603000091
:020000040000fa
:0402e400860300008d
:020000040000fa
:0402e8008603000089
:020000040000fa
:0402ec008603000085
:020000040000fa
:0402f0008603000081
:020000040000fa
:0402f400860300007d
:020000040000fa
:0402f8008603000079
:020000040000fa
:0402fc008603000075
:020000040000fa
:040300008603000070
:020000040000fa
:04030400860300006c
:020000040000fa
:040308008603000068
:020000040000fa
:04030c008603000064
:020000040000fa
:040310008603000060
:020000040000fa
:04031400860300005c
:020000040000fa
:040318008603000058
:020000040000fa
:04031c008603000054
:020000040000fa
:040320008603000050
:020000040000fa
:04032400860300004c
:020000040000fa
:040328008603000048
:020000040000fa
:04032c008603000044
:020000040000fa
:040330008603000040
:020000040000fa
:04033400860300003c
:020000040000fa
:040338008603000038
:020000040000fa
:04033c008603000034
:020000040000fa
:040340008603000030
:020000040000fa
:04034400860300002c
:020000040000fa
:040348008603000028
:020000040000fa
:04034c008603000024
:020000040000fa
:040350008603000020
:020000040000fa
:04035400860300001c
:020000040000fa
:040358008603000018
:020000040000fa
:04035c008603000014
:020000040000fa
:040360008603000010
:020000040000fa
:04036400860300000c
:020000040000fa
:10040000efbb21000e7f24000e01880000000000d9
:10041000000020000000e000020032000001200087
:100420002002880014000700e60007000000e0003a
:1004300003003a006028220001002000020037007b
:100440000000200001002000810f70000100320038
:1004500014000700000020000000e000020032004d
:100460000000020000000000501202000000000026
:100470000040da000000fe004440a9000000200017
:100480000000e0000300320000002000a00188000e
:100490004440a800000006008a1f78008b1f7800e7
:1004a0000000060091018800800478000000eb0045
:1004b0001a003700e284440032a0b4009905ba0063
:1004c000e284440032a0b4009906ba00e2844400f9
:1004d00032a0b4000006eb00476fde00fd07b2005b
:1004e000636ce10003003a00ebff07000000eb0043
:1004f0000a003700606ce10004003a00005deb0088
:100500008b05e900fdff3e00040037006168e10053
:10051000010032000086eb000b00070019c7ba008b
:100520001905ba000e04e00003003a000a00e000da
:10053000e0ff3a0000000600fe07b2009e018800be
:100540008a047800f5ff3700395dba008b05e900b1
:100550000c003200295dba008b05e900080032006a
:100560000c00e00003003a00e284440032a0b40032
:10057000f5ff370019ddba008b05e900faff3a00f4
:100580008904e800e184440032a0b40000000600c1
:10059000809fbe00821f78003400f8000000200019
:1005a000a00188000000fa003011800000407800af
:1005b00000e8b700018020009140780070c6b300c9
:1005c00080cf500003003a0010c0b30002e8b7002b
:1005d00020003700018020009140780030c7b30030
:1005e00080cf500004003a0010c0b30003e8b70009
:1005f0000268ef001700370001802000914078006a
:1006000050c7b30080cf500003003a001000200014
:10061000304088000f00370020408000018020001b
:10062000914078008100fb000001400040b42000b0
:100630000000410001087800204080000000e80030
:100640002040880020408000e50f50000100340069
:100650000428ef008560a9000080fa003400f9004a
:100660004f0178004f00be00004006003400f80043
:10067000881f780008002000a80188004f04780037
:100680000000fa008580a9000080fa003400f9001b
:10069000004006000000fa008020a900ffff37009c
:1006a0000000fa008060a900ffff37000000fa0098
:1006b0008040a900ffff37000000fa008080a900f9
:1006c000ffff37000000fa0080a0a900ffff3700fd
:1006d0000000fa008020a900ffff37000000fa00a8
:1006e0008060a900ffff37000000fa008040a900e9
:1006f000ffff37000000fa008080a900ffff3700ed
:100700000000fa0080a0a900ffff37000000fa00f7
:10071000ffff3700889fbe0080047800e05d800006
:100720000000e00004003a00190007000084eb001c
:100730000000e00008003500e85d80000900e000ee
:100740000500320009004400110007000000e0002d
:1007500001003d000084eb00080078004f04be005b
:1007600000000600000178001001e20002003500e0
:100770001061a80011e1a800300880004108800045
:100780000200e000010032000089be000000060007
:10079000800078000100e00003003a00e0bb200088
:1007a000e05d8800000005000080eb00e2bb210056
:1007b000828f500002003e00e15d88000000eb00e7
:1007c000000006000000050003f0a200889fbe00a4
:1007d0008a9fbe008c1f7800f900070000013300db
:1007e0006450e1004f0032006420e100520032000a
:1007f00003826c0007003b000905d0000306d0000f
:10080000820f54000c065d00020039000200320025
:1008100089017800030678008582550004003d00b8
:100820000003fd008103fd008502ea008b85420084
:10083000840f720002003b0060001000e08018008e
:100840006011b8000005eb007a28e1000a003900c9
:1008500006007800c75ddd00f707b20087807500ed
:100860002d003700828171000a0178006105600067
:100870008180d1000080d3008502e900f9ff3b00b0
:10088000060440008784480002003b006004140016
:10089000e0841c000988a300070032008a817100ef
:1008a00082817100610164008904d1000884d30051
:1008b0008b05e800170037000978a30013003a0001
:1008c0000b00e000130034008b05e900080444002d
:1008d00089844c000a4474000978a3000d003a0092
:1008e0000b00e000070034008b05e9000804440019
:1008f00089844c0001003a000b0020000978a30015
:10090000f7ff32000001eb00020037008281710026
:100910000a0178006f0007000cf0a70001f0a000aa
:10092000b80037006420e10002003a00838f6c00b9
:10093000b80033000801be000200be00b10037005d
:100940000081eb00ea003700889fbe008a9fbe004e
:100950008c1f78009a000700a100330003866c000a
:100960006450e1002e0032006420e10033003200c8
:100970006150e1002f0032006120e10031003200bf
:1009800085855500eb07b000090020000804200011
:10099000050037000804440089844c000a00310037
:1009a0000603430087834b000001530081815b00f5
:1009b000f8ff33000203be000800a0000804440052
:1009c00089844c00f6ff3900c639dd0083017300cd
:1009d00001003200130020008904d1000884d300f4
:1009e0000998a300050032000800a7000300a0003a
:1009f0008904d1000884d3008b05e8008904d10064
:100a00000884d3000001eb000281d200310007000e
:100a100001f0a1000cf0a70001f0a0007900370060
:100a20006420e1007b0032000801be000200be002d
:100a3000f7ff37006120e100760032006000b80067
:100a4000f3ff37000000200001f82700f0ff370017
:100a50000001be00450007000470a70003f0a100dc
:100a60006509b100160032000d0035006828e1006c
:100a700006003500f0ff2f00f1ff27000300e00023
:100a800013003b00010028000000050000004000aa
:100a9000818048008502e900fcff3a000800370029
:100aa000f88f420002003c008000eb0000000500cf
:100ab0008100d1000080d3008502e800fcff3a00ed
:100ac0000300e00002003b0060001000e08018001e
:100ad0000000060081002000618055000b003d00f1
:100ae0000b00200061fe2f000100e1001d0034001a
:100af00082817100610164008904d1000884d300ff
:100b00000000e800faff3a00710020006100640074
:100b1000030070000200600009003200610444001c
:100b2000e0844c000988a500050032008b05e80030
:100b30006808e10002003a008904d1000884d3006b
:100b4000f20f20000258e10005003d00c75ddd0006
:100b5000f907b200898075000800780000000600df
:100b60000bf827008b00780000000500c70ade00a4
:100b7000f107b200f50fb20008003200e1cf4200e9
:100b8000020032000170a00024000500810f7000f7
:100b9000010032000408050044000500810f7000c8
:100ba00002003a00140005008502e9000000400040
:100bb00081c04800fcff3b000170a000240005003c
:100bc0000004be00e9ff07000003be000405be00ec
:100bd0000200be00e5ff0700844f7500000006001c
:100be0000200be006450e100050036006420e10010
:100bf000020036000968a30001003a000800be00a8
:100c00000160a0004f0678004f05be004f04be00f3
:100c100000000600f0ff2f00f1ff2700f9ff37006a
:100c2000889fbe008a9fbe008c1f7800e4ff0700eb
:100c3000ebff330003866c006450e10024003200b7
:100c40006420e100270032006150e1002200320000
:100c50006120e100210032008b854200eb07b100ea
:100c60000134b800003ab8000804420089844a0000
:100c7000013ab8000030b8008880400009014a00fd
:100c80000400330000004000818048000201490058
:100c90008b05e900c909dd00830170000100320005
:100ca00013002000c814de004814dd004709de00f0
:100cb0001200b200c808de000884700085ff07003b
:100cc00001f0a1000cf0a70001f0a000cdff37005b
:100cd0006120e100cfff32000801be000200be002b
:100ce000f7ff37006150e100fcff3a00c9ff370011
:100cf000889fbe008a9fbe008c9fbe008205780040
:100d00000004be0099ff07000800be006420e10057
:100d10000700390002003a00f1ff2700f0ff2f0022
:100d20000160a00012022000f24088005500370048
:100d30006120e10003003a000b00a70001f8230046
:100d40005000370001f0a10002002100936424004c
:100d5000870007000800be0004003500b2fd200037
:100d6000930c2400870007000004be000005eb0080
:100d70000b00a6004f0dde0001f0a1000004be0034
:100d800032982f0023ea2300a5ff07000001eb00a3
:100d900003f023000b00a70003f823008bfe0700dd
:100da0002bff07000000a7000a00a2007200070046
:100db0000b00e000030032000200200003f02300db
:100dc00081fe070001f0a2000006be000200200024
:100dd0009304240092ff07000801be007bfe070079
:100de000809fbe000c00be0022a22a00d3a72300d1
:100df0008bff07004f01be0074fe07000004be0019
:100e000001f0a10002002000039823005800070011
:100e10000800be00190035000001be0080ff070079
:100e20000006be00b2c52900e36223007cff070074
:100e300022222b00f3942b0064fe07000c01be005d
:100e400077ff0700e273280083c023005ffe0700de
:100e50000c01be0072ff070042aa2a00a3e22b0089
:100e60005afe07000c01be006dff07000801be001e
:100e70006bff07000801be0054fe07000a00a70030
:100e800001f0a2004f06be004f05be004f04be0099
:100e9000000006000001eb0095ff3700889fbe00b0
:100ea0008a9fbe008c1f78000004be002fff070041
:100eb0000478a30026003a006120e10025003200fa
:100ec00009f8a30025003a006420e1002100320067
:100ed000f507b1000508a300020032000000400041
:100ee000818048006044b800031020000200200008
:100ef00000004000818048000805440089854c00be
:100f00000a0541008b8549000a0550008b85580071
:100f1000030033000a00be000204740083847400de
:100f20008301d1000281d300830f7100f0ff3a00ea
:100f30008904d1000884d30060014900820178004f
:100f4000c1adde00fb07b000e2fe07002dff370059
:100f50000960a0000800be002aff3700120220002e
:100f6000f2408800f0ff2f00f1ff270025ff370037
:100f700014002000540037004f89de008201780001
:100f80006c0037000400200000003700889fbe007e
:100f90008a9fbe008c1f78004f26dd0008ff0700e7
:100fa0000fff33006120e100430032006250e10096
:100fb00041003e003e0039006420e1003c00320068
:100fc000058255000f003b000402e80038003a009b
:100fd000800f5300818f5b00350034000800be0095
:100fe00003f0a10001f0a60003f0a0000cf0a700a0
:100ff000f6fd070003ff37000603430087834b001d
:101000000c4646000005530081855b00020033005a
:101010000a03be000c00a0000402e900f6ff3b003a
:10102000850578000602430087824b0004003a00e1
:101030006000b80009f0a70001f0a000f1fe370041
:101040000002520081825a000704e00004003300cd
:101050000603430087834b008b05e900faff370046
:10106000090578000604be000203be006011b80046
:1010700098fe0700e00f5200e08f5a00070035008d
:1010800002003c000c08a300040032000601be0070
:1010900003f0a0000cf0a700ccfd07000a85680053
:1010a00001f0a1000af0a70001f0a000d5fe370072
:1010b0000800be00d3fe3700100220000cf0a6008e
:1010c000f0408800d3fe3700889fbe008a9fbe0094
:1010d000841f7800bafe07004f007800110033002b
:1010e000f0ff2f00838f6c0006003b0004056500b5
:1010f0000a00a7000800370009f0a6001000200031
:1011000008003700820f5400838f5c000300390011
:101110001000200001003e000000200009f0a700a0
:101120000000ea004f05be004f04be000000e000d2
:1011300000000600881f7800030478000300e00028
:1011400007003d0060001000e080180060011900f9
:10115000e081190002003b0001f02d000300370080
:101160000400070008f0a70001f0a0004f04780079
:1011700000000600889fbe008a9fbe0000827000ab
:101180000402710004827100260032000004be00d7
:101190000200be006011b8006b092000950220001b
:1011a0000182cf000a0039000541b1000082cf0062
:1011b000070039000541b1000982cf000400390061
:1011c0000541b1000882cf00010039000541b1009e
:1011d00005425200120032000a003b008281710079
:1011e000610164008100d1000080d3008984d300b4
:1011f0000884d3008b05e8000442e800f7ff3a00ba
:10120000070037000804440089844c0000004800af
:10121000818048008b05e9000442e900f9ff3a00ab
:101220002cfe07004f05be004f04be000000060064
:101230000000eb004bfd37000000e0002f00320003
:10124000c0017800e38f51002c0036000308a30092
:101250002a003a00c15d80000100e0000200320077
:10126000810f50000400310011009800c05d88001b
:101270001600370082007800110190000200e000a3
:1012800002003200800f5100faff3900110278008d
:1012900084824000850f500018003900808f520072
:1012a00003003a008308420001007800070037007d
:1012b0000200e0000300320083014000830f510070
:1012c0000e003900120098009000980090009000e5
:1012d0000100e0000900320010014000828f500040
:1012e00006003a0062bb20000009eb001001780004
:1012f00011084100910090001100980000000600c4
:10130000889fbe0000047800b15d80000100e0000d
:1013100002003200010078000d003700c15d80003e
:1013200080bb200004003700910f540025003600d8
:101330000180e800910090000100e000faff3a000f
:1013400010003700920f54001e0036000280e800a3
:10135000100178000200e000faff3a001101780065
:10136000c15d800080bb200004003700910f540055
:10137000140036000180e80091009000828f500038
:10138000faff3a00d95d8000888f540001003100d7
:101390008804780009007800360007000000e000ab
:1013a00004003a00888f5400050032008904d100ff
:1013b000f5ff3700091878009fff0700d2ff3700bc
:1013c0000000eb004f04be0000000600881f7800fc
:1013d000630440000800a1008000eb00800f54006f
:1013e00021003600e30f540001003e0048002000b9
:1013f00008007800c2ff07008000eb000000e0005a
:101400001900320090007800910178006481510049
:10141000880f51000300310011019000020878008c
:101420000700370008814000020878009101900011
:101430001301980010017800110914008808780041
:10144000100178000000eb000200e0000400320010
:10145000920190000300e000010032000280e800e9
:10146000b05d88008180e800010078004f047800ba
:1014700000000600800078000000eb000100e000a2
:101480000500340001007800a2fc0700e10f4000d5
:0c14900001003a000000eb000000060024
:020000040000fa
:10149c001200fa00881f7800404798003107980026
:1014ac004207980054079800650798007607980043
:1014bc00070f98003e0090000000e0002d003a005d
:1014cc004e4090000004a2000004e0001500320021
:1014dc00b840800080022000b9ff0700800078002f
:1014ec00080144000082200000004100010878003f
:1014fc00b04080008000400000822000008040004e
:10150c009000780031079800b14080003e009000b8
:10151c0021109800b04080000000e800b040880026
:10152c0014003700d840800080022000a4ff070080
:10153c008000780008014400808e200000004100eb
:10154c0001087800d040800080004000808e200090
:10155c00008040001001780032079800d1408000d4
:10156c003e00900021109800d04080000000e80060
:10157c00d04088003e009000ce41900063609800ff
:10158c004e0090000000e0002d003a003e0090005c
:10159c005e019000ee0190000288be003e009000bb
:1015ac007e0190008e099000220098003300980074
:1015bc003e0090003eb99700ceb9970042009800cb
:1015cc00530098003e0090001eb99700aeb99700ea
:1015dc0062009800730098003e0090007eb1970066
:1015ec008eb9970002089800130898003e009000ee
:1015fc005eb19700eeb1970022089800330898006e
:10160c003e0090003eb19700ceb197004208980082
:10161c00530898003e0090001eb19700aeb19700a1
:10162c0062089800730898003e0090007ea997000d
:10163c008eb197000210980013109800220037000a
:10164c000000eb00000f78001c0037000000eb00de
:10165c0010079800150037001e0078006c00b900c8
:10166c0000007800ce009000808040001e009000aa
:10167c004200dd00008040001000be003e029000e1
:10168c001e0178006311b900820178001e019000e0
:10169c00028141004211dd00020142000089be00be
:1016ac001e0090000000e800100798001e0090003b
:1016bc00e20f5000e8ff34001e0fe8001e00780017
:1016cc00e20f5000e1ff34003e0090004f04780020
:1016dc000080fa00000006000400fa00000f7800f9
:1016ec00214798002e4090000004e00007003200d3
:1016fc001e007800606090000004a2000004e0006e
:10170c00020032001e007800c8fe07000080fa00bc
:10171c00000006000a00fa00300798004107980004
:10172c006000b800809fbe006000b800809fbe00c3
:10173c006000b800809fbe006000b800809fbe00b3
:10174c006000b800809fbe006000b800809fbe00a3
:10175c006000b800809fbe006033b8006022b80003
:10176c000001eb008000eb000040eb0048ff07009d
:10177c00fc875700200798000000eb00000f780052
:10178c00280037000000eb001007980021003700fc
:10179c003e0190001e0078006300b90080007800c4
:1017ac001e009000008040004200dd00000041005f
:1017bc001002be004e0190001e0078006300b900bc
:1017cc00800078001e009000008040004200dd0088
:1017dc00000041001000be000001be000400be006d
:1017ec00f7fb07002e0290001e0178006311b90070
:1017fc00820178001e019000028141004211dd003f
:10180c00020142000089be001e0090000000e800aa
:10181c00100798001e009000e20f5000dcff34000f
:10182c001e0fe8001e007800e20f5000d5ff3400b8
:10183c002e0090000080fa00000006000a00fa005a
:10184c0030079800410798006000b800809fbe00e8
:10185c006000b800809fbe006000b800809fbe0092
:10186c006000b800809fbe006000b800809fbe0082
:10187c006000b800809fbe006000b800809fbe0072
:10188c006033b8006022b8000001eb008000eb0070
:10189c000040eb00fefe0700fc8757002007980075
:1018ac000000eb00000f7800280037000000eb0070
:1018bc0010079800210037003e0190001e007800b0
:1018cc006300b900800078001e009000008040008a
:1018dc004200dd00000041001002be004e019000ed
:1018ec001e0078006300b900800078001e00900094
:1018fc00008040004200dd00000041001000be00ee
:10190c000001be000400be00acfb07002e029000dc
:10191c001e0178006311b900820178001e0190004d
:10192c00028141004211dd00020142000089be002b
:10193c001e0090000000e800100798001e009000a8
:10194c00e20f5000dcff34001e0fe8001e00780090
:10195c00e20f5000d5ff34002e0090000080fa00fa
:10196c00000006000a00fa00889fbe0030079800ad
:10197c00410798006000b800809fbe006000b8006e
:10198c00809fbe006000b800809fbe006000b80061
:10199c00809fbe006000b800809fbe006000b80051
:1019ac00809fbe006000b800809fbe006033b8000e
:1019bc006022b8000001eb008000eb000040eb005f
:1019cc00b3fe0700fc875700200798000000eb00cf
:1019dc00000f7800490037000000eb00100798005a
:1019ec00420037003e0190001e0078006c00b900e8
:1019fc0000007800000041001002be00ce009000f4
:101a0c001e0090004200dd00008040001000be006f
:101a1c000001be000400be007efc07000004be00f6
:101a2c003e0190001e0078006c00b90000007800a8
:101a3c0064004000000041001002be00ce00900087
:101a4c001e009000630040004200dd00008040005a
:101a5c001000be000001be000400be006dfc0700bb
:101a6c000001be000800be0055fb07000004be00cc
:101a7c003e0190001e0078006c00b9000000780058
:101a8c0068004000000041001002be00ce00900033
:101a9c001e009000660040004200dd000080400007
:101aac001000be000001be000400be0059fc07007f
:101abc000001be000800be0041fb07002e02900092
:101acc001e0178006311b900820178001e0190009c
:101adc00028141004211dd00020142000089be007a
:101aec001e0090000000e800100798001e009000f7
:101afc00e20f5000bbff34001e0fe8001e00780000
:101b0c00e20f5000b4ff34002e0090004f04be00d2
:101b1c000080fa00000006000600fa00889fbe0054
:101b2c0010079800210798006033b8006022b800b5
:101b3c006011b8008000eb000040eb00620607006b
:101b4c00000f78001e0090001002be002e009000c6
:101b5c001000be000001be000400be002dfc0700fa
:101b6c000004be001e00900020029000b002900005
:101b7c002e009000b0009000200090000001be00ec
:101b8c000400be0023fc07000001be000800be00dc
:101b9c000bfb07000004be001e00900040029000ea
:101bac00d00290002e009000d000900040009000d9
:101bbc000001be000400be0016fc07000001be00c0
:101bcc000800be00fefa07001e0178000089be0066
:101bdc001e00900060029000f00290002e00900019
:101bec001000be000001be000400be0009fc07008e
:101bfc000004be001e009000000a9000900a9000a5
:101c0c002e009000b0009000200090000001be005b
:101c1c000400be00fffb07000001be000800be0070
:101c2c00e7fa07000004be001e009000200a900096
:101c3c00b00a90002e009000d00090004000900060
:101c4c000001be000400be00f2fb07000001be0054
:101c5c000800be00dafa07001e0178002001980087
:101c6c00310198001e009000400a9000d00a9000ac
:101c7c002e0090001000be000001be000400be004b
:101c8c00e4fb07000004be001e009000600a9000f8
:101c9c00f00a90002e009000b00090002000900000
:101cac000001be000400be00dafb07000001be000c
:101cbc000800be00c2fa07000004be001e0090001f
:101ccc0000129000901290002e009000d000900016
:101cdc00400090000001be000400be00cdfb0700d8
:101cec000001be000800be00b5fa07001e01780016
:101cfc0040019800510198001e0078004f04be006e
:101d0c000080fa00000006000c00fa003007980072
:101d1c0042079800530798006000b800809fbe00ef
:101d2c006000b800809fbe006000b800809fbe00bd
:101d3c006000b800809fbe006000b800809fbe00ad
:101d4c006000b800809fbe006000b800809fbe009d
:101d5c006033b8006022b8000001eb008000eb009b
:101d6c000040eb00cafd0700fc87570020079800d5
:101d7c000000eb00000f78001f0037000000eb00a4
:101d8c0010079800180037003e0190001e007800e4
:101d9c006300b900800078001e00900000804000b5
:101dac004200dd00000041001000be004e0190001a
:101dbc00de01900097fb07002e0290001e017800b8
:101dcc006311b900820178001e019000028141006c
:101ddc004211dd00020142000089be001e0090008d
:101dec000000e800100798001e009000e20f500061
:101dfc00e5ff34001e0fe8001e007800e20f5000d3
:101e0c00deff34002e0090000080fa000000060077
:101e1c000200fa00889fbe00000f78001e007800b8
:101e2c001002be001e007800900890000008900080
:101e3c000001be000400be0076fb07000002be00dd
:101e4c001e00780090109000001090000001be0061
:101e5c000400be006ffb07000004be001e007800eb
:101e6c0060029000f00290001e007800f0089000d4
:101e7c00600890000001be000400be0065fb070076
:101e8c000002be001e007800d000900040009000c0
:101e9c000001be000400be005efb07000001be0096
:101eac000800be0046fa07000004be001e007800c1
:101ebc00400a9000d00a90001e007800b0009000fc
:101ecc00200090000001be000400be0051fb070082
:101edc000002be001e007800b008900020089000a0
:101eec000001be000400be004afb07000001be005a
:101efc000800be0032fa07000004be001e00780085
:101f0c00400a9000d00a90001e00780090089000c3
:101f1c00000890000001be000400be003dfb07005d
:101f2c000002be001e007800d0009000400090001f
:101f3c000001be000400be0036fb07000001be001d
:101f4c000800be001dfa07000004be001e00780049
:101f5c0060029000f00290001e007800b00090002b
:101f6c00200090000001be000400be0029fb070009
:101f7c000002be001e00780090109000001090002f
:101f8c000001be000400be0022fb07000001be00e1
:101f9c000800be0009fa07000004be001e0078000d
:101fac001002be001e007800f0089000600890003f
:101fbc000001be000400be0016fb07000002be00bc
:101fcc001e007800b0089000200890000001be00b0
:101fdc000400be000ffb07000001be000800be009d
:101fec00f6f907004f04be000080fa00000006005e
:101ffc000400fa00889fbe00100798006000b8002b
:10200c00809fbe006000b800809fbe006000b800da
:10201c00809fbe006000b800809fbe006000b800ca
:10202c00809fbe006000b800809fbe006000b800ba
:10203c00809fbe006033b8006022b8000001eb0046
:10204c008000eb000040eb0011fd0700fc875700ff
:10205c00000f78001e009000000a9000900a90007b
:10206c001e00900090109000001090000001be0027
:10207c000400be00e7fa07000004be001e0090003a
:10208c00200a9000b00a90001e009000f00890000a
:10209c00600890000001be000400be00ddfa0700dd
:1020ac000001be000800be00c4f907001e01780044
:1020bc000089be001e00900020029000b00290002b
:1020cc001e00900090109000001090000001be00c7
:1020dc000400be00cffa07000004be001e009000f2
:1020ec00600a9000f00a90001e009000d000900052
:1020fc00400090000001be000400be00c5fa0700bd
:10210c000001be000800be00acf9070001f0a200ff
:10211c001e01780020019800310198001e009000eb
:10212c0020029000b00290001e009000b0089000b9
:10213c00200890000001be000400be00b5fa0700a4
:10214c000004be001e009000000a9000900a90004f
:10215c001e009000d0009000400090000001be00d6
:10216c000400be00abfa07000001be000800be0070
:10217c0092f907001e017800400198005101980067
:10218c001e00900060029000f00290001e00900073
:10219c0090109000001090000001be000400be00e2
:1021ac009cfa07000004be001e009000400a90003c
:1021bc00d00a90001e009000b008900020089000fb
:1021cc000001be000400be0092fa07000001be0030
:1021dc000800be0079f9070001f0a2001e0178008a
:1021ec0060019800710198001e0090001002be0062
:1021fc001e00900090109000001090000001be0096
:10220c000400be0083fa07000004be001e0090000c
:10221c00400a9000d00a90001e009000d000900060
:10222c00400090000001be000400be0079fa0700d7
:10223c000001be000800be0060f907001e01780016
:10224c0000099800110998001e0090001002be00b1
:10225c001e009000b0089000200890000001be0005
:10226c000400be006bfa07000004be001e009000c4
:10227c0060029000f00290001e009000d0009000d0
:10228c00400090000001be000400be0061fa07008f
:10229c000001be000800be0048f9070001f0a200d2
:1022ac001e01780020099800310998001e0090004a
:1022bc0060029000f00290001e009000f008900068
:1022cc00600890000001be000400be0051fa070037
:1022dc000004be001e009000400a9000d00a90003e
:1022ec001e00900090089000000890000001be00b5
:1022fc000400be0047fa07000001be000800be0043
:10230c002ef907001e017800400998005109980029
:10231c001e0090001002be001e009000f0089000fd
:10232c00600890000001be000400be0039fa0700ee
:10233c000004be001e009000400a9000d00a9000dd
:10234c001e009000b0009000200090000001be0024
:10235c000400be002ffa07000001be000800be00fa
:10236c0016f9070001f0a2001e0178006009980020
:10237c00710998001e0090001002be001e00900013
:10238c0090089000000890000001be000400be0000
:10239c0020fa07000004be001e00900060029000ae
:1023ac00f00290001e009000b00090002000900001
:1023bc000001be000400be0016fa07000001be00ba
:1023cc000800be00fdf807001e01780000119800ff
:1023dc00111198001e0078004f04be000080fa0016
:1023ec00000006000800fa00889fbe003007980025
:1023fc006000b800809fbe006000b800809fbe00e7
:10240c006000b800809fbe006000b800809fbe00d6
:10241c006000b800809fbe006000b800809fbe00c6
:10242c006000b800809fbe006033b8006022b80026
:10243c000001eb008000eb000040eb0014fc0700f7
:10244c00fc875700000f78003e00900070fe0700dc
:10245c0010079800210798001e019000ae01900013
:10246c000000200001f8230034f907000004be002e
:10247c003e009000defe07000801be0022fe0700b1
:10248c00000f78001e0078004f04be000080fa0098
:10249c00000006005200fa00889fbe008a9fbe0012
:1024ac008c9fbe00eb07070096070700000020007a
:1024bc00010c2400809fbe006000b800809fbe000d
:1024cc006000b800809fbe006000b800809fbe0016
:1024dc0000002000010c2400809fbe006000b800aa
:1024ec00809fbe006000b800809fbe006033b800c3
:1024fc0004002000050c24000001eb008000eb0020
:10250c0010c0b300e2fb0700fc8757004040880076
:10251c000000200001122400809fbe006000b80063
:10252c00809fbe006000b800809fbe006000b800b5
:10253c00809fbe000000200001122400809fbe007e
:10254c006000b800809fbe006000b800809fbe0095
:10255c006033b80004002000051224000001eb00d9
:10256c008000eb0010c0b300c9fb0700fc875700cc
:10257c005040880006002000871b24000400200027
:10258c00051b24000200200003f823008000eb0050
:10259c0010c0b300cc030700000f78000600200029
:1025ac00070c240004002000c52524000200200094
:1025bc00832324008000eb0010c0b300c20307008b
:1025cc001007980006002000c726240004002000f5
:1025dc000519240002002000632824008000eb0071
:1025ec0010c0b300b80307002007980006002000b5
:1025fc00c72524000400200005042400020020004c
:10260c00031924008000eb0010c0b300ae030700d8
:10261c0030079800060020006728240004002000e2
:10262c008520240002002000031224008000eb000f
:10263c0010c0b300a4030700400798006066260092
:10264c0061132400b05a8800c15a880060662600c5
:10265c0061f22300d05a8800e15a8800d0cc2c00bb
:10266c00c1d42300f05a8800015b8800b0722800a6
:10267c0061e12300105b8800215b8800c09f2a0069
:10268c0011e72300305b8800415b8800c01e2500e9
:10269c0081e72300505b8800615b8800c03925000e
:1026ac00916c2300705b8800815b8800304c2600a5
:1026bc00a1ca2300905b8800a15b8800000e21005a
:1026cc00a1ca2300b05b8800c15b88000000200019
:1026dc00e1282400d05b8800e15b880020882a0078
:1026ec00b1872300f05b8800015c8800a0702d008e
:1026fc0031fc2300105c8800215c8800d05b8000da
:10270c00e15b80000001be0042f907000002be0040
:10271c00705b8000815b80000001be000400be0085
:10272c003cf907000004be00f05a8000015b8000f9
:10273c000001be0037f907000001be000800be0012
:10274c007ef80700305c8800415c8800d05b80001c
:10275c00e15b80000001be002ef907000005be0001
:10276c00f85b8000095c8000945b8000a55b8000b6
:10277c00b05b8000c15b80000001be000400be00a5
:10278c0024f907000002be00105c8000215c800070
:10279c000001be000400be0068f807000001be0086
:1027ac000800be0006f807000001be000a00be00cb
:1027bc0018f907000004be00f05a8000015b80008d
:1027cc000001be0013f907000001be000800be00a6
:1027dc005af80700505c8800615c8800d45b80006c
:1027ec00e55b8000905b8000a15b80000001be0077
:1027fc000400be0007f907000002be00f05a80007a
:10280c00015b80000001be000400be004bf8070015
:10281c000002be00105c8000215c80000001be0044
:10282c000400be0045f80700705c8800815c8800dd
:10283c007cfa07006040880071408800101180000d
:10284c00680060000000e0000100320080013700e9
:10285c0010118000620060000000e00002003200f5
:10286c002222a9007a01370010118000000000001c
:10287c00304080000000e000fdff3200b0408000de
:10288c0020118800c040800020118800d0408000ba
:10289c0020118800e0408000201188006910090098
:1028ac000000000069100900000000006910090018
:1028bc000000000069100900000000004e029000aa
:1028cc00be0190002e0190009e0090001e0078002a
:1028dc0096030700500798004e019000be00900030
:1028ec005e0090001805070060079800b04080005b
:1028fc0020118800c040800020118800d04080004a
:10290c0020118800e0408000201188006910090027
:10291c0000000000691009000000000069100900a7
:10292c000000000069100900000000005e0090002b
:10293c001000be0002002000a3472400b5f80700d9
:10294c0040f80700488ede00cf8ede000c007800c9
:10295c00201188005e0090001000be0002002000d4
:10296c00a3472400abf8070036f807004089de00c7
:10297c0072079800cf89de00030f98007e0090004c
:10298c00201188005e0090001000be0002002000a4
:10299c00a34724009ff807002af80700c809dd00a8
:1029ac004801de0002817100120f98004889de0098
:1029bc00220f98001e089000201188005e009000e5
:1029cc001000be0002002000a347240091f807006d
:1029dc001cf807000000780020118800691009001d
:1029ec0000000000691009000000000069100900d7
:1029fc00000000005e009000b000900020009000ed
:102a0c0002002000a347240082f807000df80700fd
:102a1c00c889de00330f98004f89de00420f980002
:102a2c003e089000201188005e009000b0009000dd
:102a3c002000900002002000a347240075f8070036
:102a4c0000f80700c089de00530f98004f89de00a4
:102a5c00620f98005e089000201188005e009000c4
:102a6c00b00090002000900002002000a34724003a
:102a7c0068f80700f3f707004809dd00c801de001d
:102a8c0083017100730f9800c889de00031798004a
:102a9c007e089000201188005e009000b00090002d
:102aac002000900002002000a347240059f80700e2
:102abc00e4f7070000007800201188006910090075
:102acc0000000000691009000000000069100900f6
:102adc00000000005e009000d000900040009000cc
:102aec0002002000a34724004af80700d5f707008e
:102afc004889de0012179800cf89de002317980052
:102b0c001e109000201188005e009000d0009000f4
:102b1c004000900002002000a34724003df807006d
:102b2c00c8f707004089de0032179800cf89de0015
:102b3c00431798003e109000201188005e00900012
:102b4c00d00090004000900002002000a347240019
:102b5c0030f80700bbf70700c809dd004801de00ac
:102b6c0002817100521798004889de0062179800a4
:102b7c005e109000201188005e009000d000900044
:102b8c004000900002002000a347240021f8070019
:102b9c00acf70700000078002011880069100900cc
:102bac000000000069100900000000006910090015
:102bbc00000000006e0090001000be00020020001b
:102bcc00a347240013f807009ef70700c889de000e
:102bdc00731798004f89de00021f98007e1090003a
:102bec00201188006e0090001000be000200200032
:102bfc00a347240007f8070092f70700c089de00fe
:102c0c00131f98004f89de00221f98001e18900099
:102c1c00201188006e0090001000be000200200001
:102c2c00a3472400fbf7070086f707004809dd00df
:102c3c00c801de0083017100331f9800c889de00d3
:102c4c00431f98003e189000201188006e009000e1
:102c5c001000be0002002000a3472400edf707007f
:102c6c0078f707000000780020118800691009002f
:102c7c000000000069100900000000006910090044
:102c8c00000000006e009000b0009000200090004a
:102c9c0002002000a3472400def7070069f70700b5
:102cac004889de00521f9800cf89de00631f980010
:102cbc005e189000201188006e009000b00090000b
:102ccc002000900002002000a3472400d1f7070049
:102cdc005cf707004089de00721f9800cf89de0088
:102cec00032798007e189000201188006e00900039
:102cfc00b00090002000900002002000a3472400a8
:102d0c00c4f707004ff70700c809dd004801de00d3
:102d1c0002817100122798004889de002227980052
:102d2c001e209000201188006e009000b0009000d2
:102d3c002000900002002000a3472400b5f70700f4
:102d4c0040f7070000007800201188006910090086
:102d5c000000000069100900000000006910090063
:102d6c00000000006e009000d00090004000900029
:102d7c0002002000a3472400a6f7070031f7070044
:102d8c00c889de00332798004f89de00422798005f
:102d9c003e209000201188006e009000d000900022
:102dac004000900002002000a347240099f7070080
:102dbc0024f70700c089de00532798004f89de00f6
:102dcc00622798005e209000201188006e00900011
:102ddc00d00090004000900002002000a347240087
:102dec008cf7070017f707004809dd00c801de0063
:102dfc008301710073279800c889de00032f9800a7
:102e0c007e209000201188006e009000d000900071
:102e1c004000900002002000a34724007df707002b
:102e2c0008f70700000078002011880069100900dd
:102e3c000000000069100900000000006910090082
:102e4c0000000000ef0107000628ef007bfe3700b2
:102e5c007afe37000400fa0003c8bf000004e0004b
:102e6c0003003200c402a800c482a800c502a80056
:102e7c0002c8bf000004e00003003200c402a90035
:102e8c00c482a900c502a900204080000000e00017
:102e9c0021003a00205a8000805a8800815a800014
:102eac00f00f200000806000805a8800815a80005a
:102ebc00305a80004800dd0001007000805a880004
:102ecc00405a8000905a8800915a8000f00f2000e0
:102edc0000806000905a8800915a8000505a8000ff
:102eec004800dd0001007000905a8800605a800094
:102efc00a05a8800a15a8000f00f200000806000ca
:102f0c00a05a8800a15a8000705a80004800dd0049
:102f1c0001007000a05a88000000eb00000f780040
:102f2c000000eb00000f7800230037000000eb00de
:102f3c00100798001e0078008000400000b52000ab
:102f4c0000804000900078000000280000806000a5
:102f5c00100798001e0090000000e00011003200e5
:102f6c001e0078008000400000b52000008040006a
:102f7c0090007800f0ff2700808060001e00780031
:102f8c000001400000b5200000004100010878005d
:102f9c0000b420001e0040008040eb000148780087
:102fac000400370000b420001e00400011c0b30024
:102fbc00014878001e0fe8001e007800e20f500058
:102fcc00daff340000b42000104078000080fb00d1
:102fdc00610060000000400022168000d1ff2f002d
:102fec0081006100010070002016880010b42000e0
:102ffc00104078000080fb00610060004700dd009d
:10300c0022168000f1f72f00810061000100700092
:10301c002016880020b42000104078000080fb00af
:10302c00610060004900dd0022168000f1df2f00f6
:10303c00810061000100700020168800805a800019
:10304c006500b90000017800605525000090b900ba
:10305c004f91de0002805000b00e8800905a800024
:10306c006500b90000017800605525000090b9009a
:10307c004f91de0002805000c00e8800a05a8000e4
:10308c006500b90000017800605525000090b9007a
:10309c004f91de0002805000d00e88000080fa00b4
:1030ac00000006000400fa00000f78002147980089
:1030bc002e4090000004e000070032001e00780053
:1030cc00604890000004a2000004e00002003200fe
:1030dc001e00780055f807000080fa00000006007a
:1030ec000400fa00889fbe008a9fbe00000f780083
:1030fc00110798001e00780040029000d00290004a
:10310c001e009000d0009000400090000001be0016
:10311c000400be00aaf507000005be001e007800e2
:10312c0020029000b00290001e009000b0009000b1
:10313c00200090000001be000400be00a0f50700b6
:10314c000004be001e0078001002be001e0090009d
:10315c001000be000001be000400be0098f5070080
:10316c000a03be000802be000001be008000eb0096
:10317c000040eb00d40007004f05be004f04be001a
:10318c000080fa00000006000400fa00889fbe00d0
:10319c008a9fbe00000f7800110798001e0078006f
:1031ac0040029000d00290001e009000d0009000d1
:1031bc00400090000001be000400be007ff5070037
:1031cc000005be001e00780020029000b0029000a6
:1031dc001e009000b0009000200090000001be0086
:1031ec000400be0075f507000004be001e00780048
:1031fc001002be001e0090001000be000001be00b8
:10320c000400be006df507000a03be000802be00f4
:10321c000001be008000eb000040eb00aa0007009c
:10322c004f05be004f04be000080fa0000000600ef
:10323c000400fa00889fbe00000f78001107980068
:10324c001e0078001002be001e0090001000be0090
:10325c000001be000400be006ef607000004be00b4
:10326c001e00780020029000b00290001e0090001a
:10327c00b0009000200090000001be000400be00d1
:10328c0064f607000001be000800be004cf5070004
:10329c000004be001e00780040029000d002900096
:1032ac001e009000d0009000400090000001be0075
:1032bc000400be0057f607000001be000800be0067
:1032cc003ff507004f04be000080fa000000060026
:1032dc000600fa00889fbe008a9fbe00000f78008f
:1032ec0012079800230798001e007800d000900069
:1032fc00400090001e019000ae01900045f60700c2
:10330c000005be001e007800b00090002000900068
:10331c001e019000ae0190003ef607000004be00b6
:10332c001e0078001000be001e019000ae0190003f
:10333c0038f607000a03be000802be000001be00fa
:10334c008000eb000040eb005f0007004f05be0063
:10335c004f04be000080fa00000006000400fa00d2
:10336c00000f7800110798001e0090001000be009e
:10337c001e0178000089be001e009000b000900075
:10338c00200090001e017800200198003101980067
:10339c001e009000d0009000400090001e017800ac
:1033ac0040019800510198001e0078000080fa003e
:1033bc00000006000200fa00889fbe00000f780093
:1033cc001e0078001002be001e0078001000be0027
:1033dc000001be000400be000ef607000004be0093
:1033ec001e00780020029000b00290001e007800b1
:1033fc00b0009000200090000001be000400be0050
:10340c0004f607000001be000800be00ecf4070043
:10341c000004be001e00780040029000d002900014
:10342c001e007800d0009000400090000001be000b
:10343c000400be00f7f507000001be000800be0046
:10344c00dff4070092f607004f04be000080fa007c
:10345c00000006000600fa00200798002e009000dd
:10346c00d4ff0700008fbe002e0090001000be009d
:10347c001e01be0031f507002e0190000089be0030
:10348c002e009000b0009000200090001e01be00a5
:10349c002af507002e0190002001980031019800b8
:1034ac002e009000d0009000400090001e01be0045
:1034bc0022f507002e019000400198005101980060
:1034cc000080fa00000006001000fa00881f780047
:1034dc00004f7800110798002207980033079800d6
:1034ec0044079800550798006607980077079800de
:1034fc001e0090000000e0002d003a001e407800f5
:10350c000004a2000004e00015003200c840800056
:10351c0000012000aaf70700800078000801440091
:10352c00009b20000000410001087800c040800092
:10353c0080004000009b200000804000900078003c
:10354c0011079800c14080001e0090006100980097
:10355c00c04080000000e800c04088001400370024
:10356c00e84080000001200095f7070080007800fb
:10357c000801440080a720000000410001087800e9
:10358c00e04080008000400080a7200000804000c8
:10359c001001780012079800e14080001e00900096
:1035ac0061009800e04080000000e800e0408800e6
:1035bc001e0090009e417800634898001e00900009
:1035cc002e019000be0190000288be001e009000eb
:1035dc004e019000de01900022009800330098000c
:1035ec001e0090006e019000fe01900042009800b9
:1035fc00530098001e0090004f0478000080fa00e1
:10360c00000006000000fa001428ef000a00370042
:10361c00a04080008000400000822000008040001c
:10362c001000780011c0b3002bf80700a0408000f8
:10363c000000e800a0408800a1408000b04080005d
:10364c00808f5000f2ff35001428ef000a0037007d
:10365c00a040800080004000009b200000804000c3
:10366c001000780011c0b3008efe0700a04080004f
:10367c000000e800a0408800a1408000c04080000d
:10368c00808f5000f2ff35001628ef001828ef004d
:10369c000080fa00000006000000fa001428ef0079
:1036ac000a003700a040800080004000808e20007f
:1036bc00008040001000780011c0b30006f807002d
:1036cc00a04080000000e800a0408800a1408000dd
:1036dc00d0408000808f5000f2ff35001428ef009e
:1036ec000a003700a04080008000400080a7200026
:1036fc00008040001000780011c0b30069fe070084
:10370c00a04080000000e800a0408800a14080009c
:10371c00e0408000808f5000f2ff35001a28ef0047
:10372c001c28ef000080fa00000006002400fa00bc
:10373c00889fbe008a9fbe008c9fbe00300f9800f1
:10374c00410f9800520f9800630f9800740f980067
:10375c006e089000d00090004000900075f40700b7
:10376c000006be006e089000d00090004000900053
:10377c00c5f507000005be006e089000d000900053
:10378c0040009000c0f507000004be0009f0a20044
:10379c006e089000d00090004000900065f4070087
:1037ac000200200003f82300829fbe006011b800c5
:1037bc00829fbe006011b800829fbe006011b800ed
:1037cc00829fbe008c9fbe008a9fbe006011b80015
:1037dc00829fbe000803be000002be000001eb0089
:1037ec008000eb000040eb0029f70700fc87570036
:1037fc00000f78006e089000d00090004000900000
:10380c00a1f507000002be0005f0a2007e089000a2
:10381c00d0009000400090000001be000400be00eb
:10382c00fcf407000006be006e089000d00090006b
:10383c00400090003ff407000002be007e0890009c
:10384c00d0009000400090000001be000400be00bb
:10385c00f0f407000005be006e089000d000900048
:10386c004000900033f407000002be0005f0a200f7
:10387c007e089000d0009000400090000001be0037
:10388c000400be00e3f407000004be006e089000c4
:10389c00d0009000400090007bf507000002be00b5
:1038ac0005f0a2007e089000d0009000400090002f
:1038bc000001be000400be00d6f407006011b80081
:1038cc00829fbe006011b800829fbe006011b800dc
:1038dc00829fbe006011b800829fbe008c9fbe000c
:1038ec008a9fbe006011b800829fbe000803be0014
:1038fc000002be000001eb008000eb000040eb007a
:10390c00e3f60700fc87570010079800305c800036
:10391c00415c80000200200003042400bdf4070079
:10392c000004be00505b8000615b80000001be00a3
:10393c00b8f407000001be000800be00b5f4070093
:10394c000002be00d05a8000e15a80000001be0087
:10395c000400be009af307000005be00305c800036
:10396c00415c80000200200003fc2300a9f4070046
:10397c000002be00b05a8000c15a80000001be0097
:10398c000400be008ef307000004be00305c800013
:10399c00415c80000200200003fc23009df4070022
:1039ac000002be00b05a8000c15a80000001be0067
:1039bc000400be0082f307008a9fbe006011b800ad
:1039cc00829fbe006011b800829fbe006011b800db
:1039dc00829fbe00889fbe006011b800829fbe000f
:1039ec006011b800829fbe006033b8000002be00b8
:1039fc000001eb008000eb000040eb00a4f6070098
:103a0c00fc87570020079800505c8000615c8000a8
:103a1c0002002000030424007ef407000004be0012
:103a2c00505b8000615b80000001be0079f40700f0
:103a3c000001be000800be0076f407000001be00c5
:103a4c000217980013179800505c8000615c80008e
:103a5c000200200003fc23006ef407000006be00e9
:103a6c00b45a8000c55a80007e089000d0009000a7
:103a7c00400090000001be000400be0065f4070089
:103a8c000005be00b05a8000c15a80000002be0082
:103a9c0005f0a2007e089000d0009000400090003d
:103aac000001be000400be005af407000004be0072
:103abc00505c8000615c80000200200003fc23004d
:103acc0054f407000e1190009e119000829fbe00ce
:103adc006011b800829fbe006011b800829fbe00ca
:103aec006011b800829fbe008c9fbe008a9fbe00f2
:103afc006011b800829fbe000803be000002be0029
:103b0c000001eb008000eb000040eb0060f60700ca
:103b1c00fc875700300798006e089000d00090008a
:103b2c004000900083f307000006be006e08900072
:103b3c00d000900040009000d3f407000005be00b8
:103b4c000bf0a2006e089000d00090004000900096
:103b5c00cdf407000004be006e089000d000900069
:103b6c004000900073f307000200200003f82300cc
:103b7c00829fbe006011b800829fbe006011b80029
:103b8c00829fbe006011b800829fbe008c9fbe0059
:103b9c008a9fbe006011b800829fbe000803be0061
:103bac000002be000001eb008000eb000040eb00c7
:103bbc0037f60700fc87570040079800ce009000ae
:103bcc002e00900067f7070050079800ce00900079
:103bdc001e00900063f70700800078004e009000f4
:103bec0060f70700800078002e0090005df707005a
:103bfc0000047800ce0090003e00900059f70700ba
:103c0c00880078000df7070060079800545b80006f
:103c1c00655b8000525b8000635b8000505b8000c2
:103c2c00615b8000849fbe00829fbe00809fbe00af
:103c3c006000b800809fbe00d0222b00d1f52b0075
:103c4c00809fbe00d0222b00d1f52300809fbe00a8
:103c5c000000200001f82300809fbe000600200019
:103c6c0007f02b000400200005f02b000001eb00f6
:103c7c008000eb000040eb0005f60700fc875700c6
:103c8c0070079800705c8000815c80000001be00b1
:103c9c007e0090001cf80700000f9800be089000f2
:103cac006e08900038fd07008000780040408000ce
:103cbc0099f7070000047800ce0890007e08900069
:103ccc0031fd0700800078005040800092f707001b
:103cdc008800780002fd0700800078005e089000e4
:103cec0029fd0700800078005e0090008af707002d
:103cfc00000478000e089000baf9070088007800dc
:103d0c0085f70700100f98000e089000b5f9070012
:103d1c00ee00900013f70700fe0890007ef70700f6
:103d2c00800078001e089000edfc0700200f980022
:103d3c002e0890004f06be004f05be004f04be007b
:103d4c000080fa00000006001e00fa00889fbe00ea
:103d5c008a9fbe008c9fbe00200f9800310f9800e8
:103d6c00420f98003e089000d00090004000900058
:103d7c00f0f207000006be003e089000d000900054
:103d8c004000900040f407000005be003e08900083
:103d9c00d0009000400090003bf407000004be00ef
:103dac0009f0a2003e089000d00090004000900066
:103dbc00e0f207000200200003f82300829fbe00ff
:103dcc006011b800829fbe006011b800829fbe00d7
:103ddc006011b800829fbe008c9fbe008a9fbe00ff
:103dec006011b800829fbe000803be000002be0036
:103dfc000001eb008000eb000040eb00a4f5070095
:103e0c00fc875700000f78003e089000d00090000f
:103e1c00400090001cf407000002be0005f0a20058
:103e2c004e089000d0009000400090000001be00b1
:103e3c000400be0077f307000006be003e089000a9
:103e4c00d000900040009000baf207000002be00c3
:103e5c004e089000d0009000400090000001be0081
:103e6c000400be006bf307000005be003e08900086
:103e7c00d000900040009000aef207000002be009f
:103e8c0005f0a2004e089000d00090004000900079
:103e9c000001be000400be005ef307000004be007b
:103eac003e089000d000900040009000f6f3070010
:103ebc000002be0005f0a2004e089000d000900059
:103ecc00400090000001be000400be0051f307004a
:103edc006011b800829fbe006011b800829fbe00c6
:103eec006011b800829fbe006011b800829fbe00b6
:103efc008c9fbe008a9fbe006011b800829fbe00de
:103f0c000803be000002be000001eb008000eb00c5
:103f1c000040eb005ef50700fc8757001007980087
:103f2c00305c8000415c800002002000030424000f
:103f3c0038f307000004be00505b8000615b80001a
:103f4c000001be0033f307000001be000800be00f4
:103f5c0030f307000002be00d05a8000e15a800006
:103f6c000001be000400be0015f207000005be00f3
:103f7c00305c8000415c80000200200003fc2300c8
:103f8c0024f307000002be00b05a8000c15a800022
:103f9c000001be000400be0009f207000004be00d0
:103fac00305c8000415c80000200200003fc230098
:103fbc0018f307000002be00b05a8000c15a8000fe
:103fcc000001be000400be00fdf107008a9fbe0088
:103fdc006011b800829fbe006011b800829fbe00c5
:103fec006011b800829fbe00889fbe006011b800af
:103ffc00829fbe006011b800829fbe006033b80083
:10400c000002be000001eb008000eb000040eb0062
:10401c001ff50700fc87570020079800505c8000b4
:10402c00615c80000200200003042400f9f2070008
:10403c000004be00505b8000615b80000001be008c
:10404c00f4f207000001be000800be00f1f2070008
:10405c000001be00520f9800630f9800505c800066
:10406c00615c80000200200003fc2300e9f20700e1
:10407c000006be00b45a8000c55a80004e0890005d
:10408c00d0009000400090000001be000400be0073
:10409c00e0f207000005be00b05a8000c15a800053
:1040ac000002be0005f0a2004e089000d000900067
:1040bc00400090000001be000400be00d5f20700d5
:1040cc000004be00505c8000615c80000200200097
:1040dc0003fc2300cff207005e099000ee0990006c
:1040ec00829fbe006011b800829fbe006011b800b4
:1040fc00829fbe006011b800829fbe008c9fbe00e4
:10410c008a9fbe006011b800829fbe000803be00eb
:10411c000002be000001eb008000eb000040eb0051
:10412c00dbf40700fc875700300798003e0890002e
:10413c00d000900040009000fef107000006be0089
:10414c003e089000d0009000400090004ef3070015
:10415c000005be000bf0a2003e089000d0009000bd
:10416c004000900048f307000004be003e08900099
:10417c00d000900040009000eef1070002002000fb
:10418c0003f82300829fbe006011b800829fbe001e
:10419c006011b800829fbe006011b800829fbe0003
:1041ac008c9fbe008a9fbe006011b800829fbe002b
:1041bc000803be000002be000001eb008000eb0013
:1041cc000040eb00b2f40700fc8757004007980052
:1041dc00ce0090002e009000e2f5070050079800ea
:1041ec00ce0090001e009000def5070080007800e5
:1041fc004e009000dbf50700800078002e00900048
:10420c00d8f5070000047800ce0090003e00900026
:10421c00d4f507008800780088f50700600798003f
:10422c00545b8000655b8000525b8000635b8000a8
:10423c00505b8000615b8000849fbe00829fbe004b
:10424c00809fbe006000b800809fbe00d0222b0073
:10425c00d1f52b00809fbe00d0222b00d1f523007e
:10426c00809fbe000000200001f82300809fbe004c
:10427c000600200007f02b000400200005f02b00a6
:10428c000001eb008000eb000040eb0080f4070025
:10429c00fc87570070079800705c8000815c800080
:1042ac000001be007e00900097f60700000f9800fa
:1042bc00ce0890006e00900017f6070000047800fe
:1042cc00ae0890000e08900013f6070088007800e6
:1042dc00adfb0700000478005e00900041f8070079
:1042ec00880078000cf60700100f98001e0890004c
:1042fc004f06be004f05be004f04be000080fa0002
:10430c00000006000000fa00113a8000f0fb2f00bc
:10431c0000816000600420007105200023742000df
:10432c0080497800814978008249780021358000e5
:10433c0000fe2f00008060004001b3002035880093
:10434c002136800000fe2f00008060003000b3009a
:10435c0020368800103a8000000178000260a0002e
:10436c00600420007105200023742000804978002f
:10437c008149780082497800c002a900c022a900b6
:10438c00c082a900c0e2a900c102a900c122a900f3
:10439c0003000700160007000080fa00000006006a
:1043ac000000fa0000002800000e8800c221ef0077
:1043bc00f07c2000200e8800f0ff2000400e8800ca
:1043cc0040002000500e880000f02f00a00e880046
:1043dc0040062000b00e8800800c2000c00e880023
:1043ec00803e2000d00e88000080fa0000000600fd
:1043fc000000fa002002a9000111800090ff2f009c
:10440c00008060000011880020a2a9002062a90091
:10441c0020c2a900400120004011880023a2a9005d
:10442c0023e2a90011118000f0f32f00008060003e
:10443c00101188009580a8009560a80021e2a800c2
:10444c002342a80091010900000000000080fa003e
:10445c00000006000000fa0090022000303a8800ac
:10446c00213a8000f0f32f0000806000203a880091
:10447c00213a800000fe2f0000806000203a880066
:10448c0050012000403a880040a7a90032002000cb
:10449c0080072000a1092000337420008049780097
:1044ac0081497800824978001200200060042000c5
:1044bc007105200023742000804978008149780020
:1044cc008249780000000000113a800000002700ab
:1044dc008080600000002300808f5000faff3a00bb
:1044ec0000000000113a80000002200000806000f3
:1044fc000000e000fbff32000080fa000000060024
:020000040000fa
:10450c00920b000024000000020000000000c0001c
:10451c00400000000000000000000000000000004f
:10452c0000000000c040000000000000000000007f
:10453c00000000000000000000c04000400b000024
:10454c0052000000000000000008000014000000f1
:10455c000000000020080000200300000000000004
:10456c00140800000a000000000000001e080000f3
:10457c000200000000000000ba0b00000200000066
:10458c000200000004000000b60b00000400000054
:10459c0000000000bc0b0000020000000000000046
:0445ac00000000000b
:020000040000fa
:0200000401f009
:04000000ffff0000fe
:020000040000fa
:0200000401f009
:04000400ffff0000fa
:020000040000fa
:0200000401f009
:04000800ffff0000f6
:020000040000fa
:0200000401f009
:04000c00820000006e
:020000040000fa
:0200000401f009
:040010006500000087
:020000040000fa
:0200000401f009
:040014005f00000089
:020000040000fa
:0200000401f009
:04001800770000006d
:020000040000fa
:0200000401f009
:04001c00ddff000004
:00000001FF
